{
  "contracts/BulkSender.sol": {
    "BulkSender": {
      "abi": [
        {
          "inputs": [
            {
              "internalType": "address",
              "name": "initialOwner",
              "type": "address"
            }
          ],
          "stateMutability": "nonpayable",
          "type": "constructor"
        },
        {
          "inputs": [],
          "name": "EnforcedPause",
          "type": "error"
        },
        {
          "inputs": [],
          "name": "ExpectedPause",
          "type": "error"
        },
        {
          "inputs": [
            {
              "internalType": "address",
              "name": "owner",
              "type": "address"
            }
          ],
          "name": "OwnableInvalidOwner",
          "type": "error"
        },
        {
          "inputs": [
            {
              "internalType": "address",
              "name": "account",
              "type": "address"
            }
          ],
          "name": "OwnableUnauthorizedAccount",
          "type": "error"
        },
        {
          "inputs": [],
          "name": "ReentrancyGuardReentrantCall",
          "type": "error"
        },
        {
          "inputs": [
            {
              "internalType": "address",
              "name": "token",
              "type": "address"
            }
          ],
          "name": "SafeERC20FailedOperation",
          "type": "error"
        },
        {
          "anonymous": false,
          "inputs": [
            {
              "indexed": true,
              "internalType": "address",
              "name": "token",
              "type": "address"
            },
            {
              "indexed": true,
              "internalType": "address",
              "name": "sender",
              "type": "address"
            },
            {
              "indexed": false,
              "internalType": "uint256[]",
              "name": "tokenIds",
              "type": "uint256[]"
            },
            {
              "indexed": false,
              "internalType": "uint256[]",
              "name": "amounts",
              "type": "uint256[]"
            },
            {
              "indexed": false,
              "internalType": "address[]",
              "name": "recipients",
              "type": "address[]"
            }
          ],
          "name": "BulkERC1155Transfer",
          "type": "event"
        },
        {
          "anonymous": false,
          "inputs": [
            {
              "indexed": true,
              "internalType": "address",
              "name": "token",
              "type": "address"
            },
            {
              "indexed": true,
              "internalType": "address",
              "name": "sender",
              "type": "address"
            },
            {
              "indexed": false,
              "internalType": "uint256",
              "name": "totalAmount",
              "type": "uint256"
            },
            {
              "indexed": false,
              "internalType": "uint256",
              "name": "recipientCount",
              "type": "uint256"
            }
          ],
          "name": "BulkERC20Transfer",
          "type": "event"
        },
        {
          "anonymous": false,
          "inputs": [
            {
              "indexed": true,
              "internalType": "address",
              "name": "token",
              "type": "address"
            },
            {
              "indexed": true,
              "internalType": "address",
              "name": "sender",
              "type": "address"
            },
            {
              "indexed": false,
              "internalType": "uint256[]",
              "name": "tokenIds",
              "type": "uint256[]"
            },
            {
              "indexed": false,
              "internalType": "address[]",
              "name": "recipients",
              "type": "address[]"
            }
          ],
          "name": "BulkERC721Transfer",
          "type": "event"
        },
        {
          "anonymous": false,
          "inputs": [
            {
              "indexed": true,
              "internalType": "address",
              "name": "previousOwner",
              "type": "address"
            },
            {
              "indexed": true,
              "internalType": "address",
              "name": "newOwner",
              "type": "address"
            }
          ],
          "name": "OwnershipTransferred",
          "type": "event"
        },
        {
          "anonymous": false,
          "inputs": [
            {
              "indexed": false,
              "internalType": "address",
              "name": "account",
              "type": "address"
            }
          ],
          "name": "Paused",
          "type": "event"
        },
        {
          "anonymous": false,
          "inputs": [
            {
              "indexed": false,
              "internalType": "uint256",
              "name": "newLimit",
              "type": "uint256"
            }
          ],
          "name": "RecipientLimitUpdated",
          "type": "event"
        },
        {
          "anonymous": false,
          "inputs": [
            {
              "indexed": false,
              "internalType": "address",
              "name": "account",
              "type": "address"
            }
          ],
          "name": "Unpaused",
          "type": "event"
        },
        {
          "inputs": [
            {
              "internalType": "address",
              "name": "token",
              "type": "address"
            },
            {
              "internalType": "address[]",
              "name": "recipients",
              "type": "address[]"
            },
            {
              "internalType": "uint256",
              "name": "tokenId",
              "type": "uint256"
            },
            {
              "internalType": "uint256[]",
              "name": "amounts",
              "type": "uint256[]"
            },
            {
              "internalType": "bytes",
              "name": "data",
              "type": "bytes"
            }
          ],
          "name": "bulkSendERC1155",
          "outputs": [],
          "stateMutability": "payable",
          "type": "function"
        },
        {
          "inputs": [
            {
              "internalType": "address",
              "name": "token",
              "type": "address"
            },
            {
              "internalType": "address[]",
              "name": "recipients",
              "type": "address[]"
            },
            {
              "internalType": "uint256[]",
              "name": "tokenIds",
              "type": "uint256[]"
            },
            {
              "internalType": "uint256[]",
              "name": "amounts",
              "type": "uint256[]"
            },
            {
              "internalType": "bytes",
              "name": "data",
              "type": "bytes"
            }
          ],
          "name": "bulkSendERC1155Different",
          "outputs": [],
          "stateMutability": "payable",
          "type": "function"
        },
        {
          "inputs": [
            {
              "internalType": "address",
              "name": "token",
              "type": "address"
            },
            {
              "internalType": "address[]",
              "name": "recipients",
              "type": "address[]"
            },
            {
              "internalType": "uint256[]",
              "name": "amounts",
              "type": "uint256[]"
            }
          ],
          "name": "bulkSendERC20Different",
          "outputs": [],
          "stateMutability": "payable",
          "type": "function"
        },
        {
          "inputs": [
            {
              "internalType": "address",
              "name": "token",
              "type": "address"
            },
            {
              "internalType": "address[]",
              "name": "recipients",
              "type": "address[]"
            },
            {
              "internalType": "uint256",
              "name": "amount",
              "type": "uint256"
            }
          ],
          "name": "bulkSendERC20Equal",
          "outputs": [],
          "stateMutability": "payable",
          "type": "function"
        },
        {
          "inputs": [
            {
              "internalType": "address",
              "name": "token",
              "type": "address"
            },
            {
              "internalType": "address[]",
              "name": "recipients",
              "type": "address[]"
            },
            {
              "internalType": "uint256[]",
              "name": "tokenIds",
              "type": "uint256[]"
            }
          ],
          "name": "bulkSendERC721",
          "outputs": [],
          "stateMutability": "payable",
          "type": "function"
        },
        {
          "inputs": [
            {
              "internalType": "address",
              "name": "token",
              "type": "address"
            },
            {
              "internalType": "address",
              "name": "to",
              "type": "address"
            },
            {
              "internalType": "uint256",
              "name": "amount",
              "type": "uint256"
            }
          ],
          "name": "emergencyWithdraw",
          "outputs": [],
          "stateMutability": "nonpayable",
          "type": "function"
        },
        {
          "inputs": [],
          "name": "getRecipientLimit",
          "outputs": [
            {
              "internalType": "uint256",
              "name": "",
              "type": "uint256"
            }
          ],
          "stateMutability": "view",
          "type": "function"
        },
        {
          "inputs": [],
          "name": "isPaused",
          "outputs": [
            {
              "internalType": "bool",
              "name": "",
              "type": "bool"
            }
          ],
          "stateMutability": "view",
          "type": "function"
        },
        {
          "inputs": [],
          "name": "owner",
          "outputs": [
            {
              "internalType": "address",
              "name": "",
              "type": "address"
            }
          ],
          "stateMutability": "view",
          "type": "function"
        },
        {
          "inputs": [],
          "name": "paused",
          "outputs": [
            {
              "internalType": "bool",
              "name": "",
              "type": "bool"
            }
          ],
          "stateMutability": "view",
          "type": "function"
        },
        {
          "inputs": [],
          "name": "recipientLimit",
          "outputs": [
            {
              "internalType": "uint256",
              "name": "",
              "type": "uint256"
            }
          ],
          "stateMutability": "view",
          "type": "function"
        },
        {
          "inputs": [],
          "name": "renounceOwnership",
          "outputs": [],
          "stateMutability": "nonpayable",
          "type": "function"
        },
        {
          "inputs": [
            {
              "internalType": "bool",
              "name": "paused",
              "type": "bool"
            }
          ],
          "name": "setPaused",
          "outputs": [],
          "stateMutability": "nonpayable",
          "type": "function"
        },
        {
          "inputs": [
            {
              "internalType": "uint256",
              "name": "newLimit",
              "type": "uint256"
            }
          ],
          "name": "setRecipientLimit",
          "outputs": [],
          "stateMutability": "nonpayable",
          "type": "function"
        },
        {
          "inputs": [
            {
              "internalType": "address",
              "name": "newOwner",
              "type": "address"
            }
          ],
          "name": "transferOwnership",
          "outputs": [],
          "stateMutability": "nonpayable",
          "type": "function"
        },
        {
          "stateMutability": "payable",
          "type": "receive"
        }
      ],
      "evm": {
        "bytecode": {
          "linkReferences": {},
          "object": "608060405260c8600355348015610014575f5ffd5b50604051611d4d380380611d4d833981016040819052610033916100c4565b806001600160a01b03811661006157604051631e4fbdf760e01b81525f600482015260240160405180910390fd5b61006a81610075565b5050600180556100f1565b5f80546001600160a01b038381166001600160a01b0319831681178455604051919092169283917f8be0079c531659141344cd1fd0a4f28419497f9722a3daafe3b4186f6b6457e09190a35050565b5f602082840312156100d4575f5ffd5b81516001600160a01b03811681146100ea575f5ffd5b9392505050565b611c4f806100fe5f395ff3fe6080604052600436106100e7575f3560e01c80638769ec7c11610087578063e63ea40811610057578063e63ea40814610217578063ea0a046314610236578063ef5114ed1461024a578063f2fde38b1461025d575f5ffd5b80638769ec7c146101a75780638da5cb5b146101ba578063b187bd26146101e0578063ba6ccb40146101f4575f5ffd5b806359624756116100c257806359624756146101395780635c975abb146101585780637052d2b914610180578063715018a614610193575f5ffd5b806304a59160146100f257806316c38b3c146101075780633cc0063514610126575f5ffd5b366100ee57005b5f5ffd5b610105610100366004611532565b61027c565b005b348015610112575f5ffd5b50610105610121366004611587565b610416565b6101056101343660046115ea565b610437565b348015610144575f5ffd5b506101056101533660046116c6565b6104fd565b348015610163575f5ffd5b5060025460ff165b60405190151581526020015b60405180910390f35b61010561018e3660046116dd565b6105a0565b34801561019e575f5ffd5b506101056107b1565b6101056101b536600461175b565b6107c4565b3480156101c5575f5ffd5b505f546040516001600160a01b039091168152602001610177565b3480156101eb575f5ffd5b5061016b61087f565b3480156101ff575f5ffd5b5061020960035481565b604051908152602001610177565b348015610222575f5ffd5b50610105610231366004611810565b610891565b348015610241575f5ffd5b50600354610209565b6101056102583660046116dd565b610a10565b348015610268575f5ffd5b5061010561027736600461184a565b610c20565b610284610c5a565b61028c610c84565b81806102b35760405162461bcd60e51b81526004016102aa90611863565b60405180910390fd5b6003548111156102d55760405162461bcd60e51b81526004016102aa9061189a565b5f82116102f45760405162461bcd60e51b81526004016102aa906118dd565b5f6102ff848461193a565b905061030c863383610ca8565b856103226001600160a01b038216333085610ec9565b5f5b858110156103bd575f87878381811061033f5761033f611957565b9050602002016020810190610354919061184a565b6001600160a01b03160361037a5760405162461bcd60e51b81526004016102aa9061196b565b6103b587878381811061038f5761038f611957565b90506020020160208101906103a4919061184a565b6001600160a01b0384169087610f30565b600101610324565b50604080518381526020810187905233916001600160a01b038a16917f7ec79f40ea4b20c658c34d61e167b02589f7abc3534ea5eebca3fce93793db48910160405180910390a350505061041060018055565b50505050565b61041e610f61565b801561042f5761042c610f8d565b50565b61042c610fe7565b61043f610c5a565b610447610c84565b86806104655760405162461bcd60e51b81526004016102aa90611863565b6003548111156104875760405162461bcd60e51b81526004016102aa9061189a565b6001600160a01b038a166104ad5760405162461bcd60e51b81526004016102aa906119a2565b87861480156104bb57508584145b6104d75760405162461bcd60e51b81526004016102aa906119e3565b6104e88a8a8a8a8a8a8a8a8a611020565b506104f260018055565b505050505050505050565b610505610f61565b5f81116105655760405162461bcd60e51b815260206004820152602860248201527f42756c6b53656e6465723a204c696d6974206d75737420626520677265617465604482015267072207468616e20360c41b60648201526084016102aa565b60038190556040518181527f2bed6cf51b7539809f75ce72d151c0d9f5c1c55f93e84b1cea4c6911170b61409060200160405180910390a150565b6105a8610c5a565b6105b0610c84565b82806105ce5760405162461bcd60e51b81526004016102aa90611863565b6003548111156105f05760405162461bcd60e51b81526004016102aa9061189a565b6001600160a01b0386166106165760405162461bcd60e51b81526004016102aa906119a2565b8382146106355760405162461bcd60e51b81526004016102aa906119e3565b855f5b8581101561074d575f87878381811061065357610653611957565b9050602002016020810190610668919061184a565b6001600160a01b03160361068e5760405162461bcd60e51b81526004016102aa9061196b565b816001600160a01b03166342842e0e338989858181106106b0576106b0611957565b90506020020160208101906106c5919061184a565b8888868181106106d7576106d7611957565b6040516001600160e01b031960e088901b1681526001600160a01b039586166004820152949093166024850152506020909102013560448201526064015f604051808303815f87803b15801561072b575f5ffd5b505af115801561073d573d5f5f3e3d5ffd5b5050600190920191506106389050565b50336001600160a01b0316876001600160a01b03167fb9d997fc4103799e2523371077f0206e376d61f19699302a45f0d945cc594d4286868a8a6040516107979493929190611a9a565b60405180910390a350506107aa60018055565b5050505050565b6107b9610f61565b6107c25f6111d7565b565b6107cc610c5a565b6107d4610c84565b85806107f25760405162461bcd60e51b81526004016102aa90611863565b6003548111156108145760405162461bcd60e51b81526004016102aa9061189a565b6001600160a01b03891661083a5760405162461bcd60e51b81526004016102aa906119a2565b8684146108595760405162461bcd60e51b81526004016102aa906119e3565b61086b89898989898989896001611226565b5061087560018055565b5050505050505050565b5f61088c60025460ff1690565b905090565b610899610f61565b6001600160a01b0382166108ef5760405162461bcd60e51b815260206004820152601b60248201527f42756c6b53656e6465723a20496e76616c69642061646472657373000000000060448201526064016102aa565b6001600160a01b0383166109f757478082111561094e5760405162461bcd60e51b815260206004820181905260248201527f42756c6b53656e6465723a20496e73756666696369656e742062616c616e636560448201526064016102aa565b5f836001600160a01b0316836040515f6040518083038185875af1925050503d805f8114610997576040519150601f19603f3d011682016040523d82523d5f602084013e61099c565b606091505b50509050806107aa5760405162461bcd60e51b815260206004820152602160248201527f42756c6b53656e6465723a20455448207769746864726177616c206661696c656044820152601960fa1b60648201526084016102aa565b610a0b6001600160a01b0384168383610f30565b505050565b610a18610c5a565b610a20610c84565b8280610a3e5760405162461bcd60e51b81526004016102aa90611863565b600354811115610a605760405162461bcd60e51b81526004016102aa9061189a565b838214610a7f5760405162461bcd60e51b81526004016102aa906119e3565b5f805b83811015610aef575f858583818110610a9d57610a9d611957565b9050602002013511610ac15760405162461bcd60e51b81526004016102aa906118dd565b848482818110610ad357610ad3611957565b9050602002013582610ae59190611acb565b9150600101610a82565b50610afb873383610ca8565b86610b116001600160a01b038216333085610ec9565b5f5b86811015610bcd575f888883818110610b2e57610b2e611957565b9050602002016020810190610b43919061184a565b6001600160a01b031603610b695760405162461bcd60e51b81526004016102aa9061196b565b610bc5888883818110610b7e57610b7e611957565b9050602002016020810190610b93919061184a565b878784818110610ba557610ba5611957565b90506020020135846001600160a01b0316610f309092919063ffffffff16565b600101610b13565b50604080518381526020810188905233916001600160a01b038b16917f7ec79f40ea4b20c658c34d61e167b02589f7abc3534ea5eebca3fce93793db48910160405180910390a35050506107aa60018055565b610c28610f61565b6001600160a01b038116610c5157604051631e4fbdf760e01b81525f60048201526024016102aa565b61042c816111d7565b600260015403610c7d57604051633ee5aeb560e01b815260040160405180910390fd5b6002600155565b60025460ff16156107c25760405163d93c066560e01b815260040160405180910390fd5b6001600160a01b038316610cce5760405162461bcd60e51b81526004016102aa906119a2565b5f8111610d355760405162461bcd60e51b815260206004820152602f60248201527f42756c6b53656e6465723a20546f74616c20616d6f756e74206d75737420626560448201526e02067726561746572207468616e203608c1b60648201526084016102aa565b604051636eb1769f60e11b81526001600160a01b03838116600483015230602483015284915f9183169063dd62ed3e90604401602060405180830381865afa158015610d83573d5f5f3e3d5ffd5b505050506040513d601f19601f82011682018060405250810190610da79190611ade565b905082811015610e045760405162461bcd60e51b815260206004820152602260248201527f42756c6b53656e6465723a20496e73756666696369656e7420616c6c6f77616e604482015261636560f01b60648201526084016102aa565b6040516370a0823160e01b81526001600160a01b0385811660048301525f91908416906370a0823190602401602060405180830381865afa158015610e4b573d5f5f3e3d5ffd5b505050506040513d601f19601f82011682018060405250810190610e6f9190611ade565b905083811015610ec15760405162461bcd60e51b815260206004820181905260248201527f42756c6b53656e6465723a20496e73756666696369656e742062616c616e636560448201526064016102aa565b505050505050565b6040516001600160a01b0384811660248301528381166044830152606482018390526104109186918216906323b872dd906084015b604051602081830303815290604052915060e01b6020820180516001600160e01b038381831617835250505050611441565b6040516001600160a01b03838116602483015260448201839052610a0b91859182169063a9059cbb90606401610efe565b5f546001600160a01b031633146107c25760405163118cdaa760e01b81523360048201526024016102aa565b610f95610c84565b6002805460ff191660011790557f62e78cea01bee320cd4e420270b5ea74000d11b0c9f74754ebdbfc544b05a258610fca3390565b6040516001600160a01b03909116815260200160405180910390a1565b610fef6114ad565b6002805460ff191690557f5db9ee0a495bf2e6ff9c91a7834c1ba4fdd244a5e8aa4e537bd38aeae4b073aa33610fca565b885f5b88811015611175575f8a8a8381811061103e5761103e611957565b9050602002016020810190611053919061184a565b6001600160a01b0316036110795760405162461bcd60e51b81526004016102aa9061196b565b5f86868381811061108c5761108c611957565b90506020020135116110b05760405162461bcd60e51b81526004016102aa906118dd565b816001600160a01b031663f242432a338c8c858181106110d2576110d2611957565b90506020020160208101906110e7919061184a565b8b8b868181106110f9576110f9611957565b905060200201358a8a8781811061111257611112611957565b9050602002013589896040518763ffffffff1660e01b815260040161113c96959493929190611af5565b5f604051808303815f87803b158015611153575f5ffd5b505af1158015611165573d5f5f3e3d5ffd5b5050600190920191506110239050565b50336001600160a01b03168a6001600160a01b03167fd9a609fb8004c27b22cca523071b055175f239379e2e85a854478e1bd1b9c247898989898f8f6040516111c396959493929190611b4d565b60405180910390a350505050505050505050565b5f80546001600160a01b038381166001600160a01b0319831681178455604051919092169283917f8be0079c531659141344cd1fd0a4f28419497f9722a3daafe3b4186f6b6457e09190a35050565b885f5b88811015611363575f8a8a8381811061124457611244611957565b9050602002016020810190611259919061184a565b6001600160a01b03160361127f5760405162461bcd60e51b81526004016102aa9061196b565b5f87878381811061129257611292611957565b90506020020135116112b65760405162461bcd60e51b81526004016102aa906118dd565b816001600160a01b031663f242432a338c8c858181106112d8576112d8611957565b90506020020160208101906112ed919061184a565b8b8b8b8781811061130057611300611957565b905060200201358a8a6040518763ffffffff1660e01b815260040161132a96959493929190611af5565b5f604051808303815f87803b158015611341575f5ffd5b505af1158015611353573d5f5f3e3d5ffd5b5050600190920191506112299050565b508115611435575f886001600160401b0381111561138357611383611b95565b6040519080825280602002602001820160405280156113ac578160200160208202803683370190505b5090505f5b898110156113df57888282815181106113cc576113cc611957565b60209081029190910101526001016113b1565b50336001600160a01b03168b6001600160a01b03167fd9a609fb8004c27b22cca523071b055175f239379e2e85a854478e1bd1b9c247838a8a8f8f60405161142b959493929190611ba9565b60405180910390a3505b50505050505050505050565b5f5f60205f8451602086015f885af180611460576040513d5f823e3d81fd5b50505f513d91508115611477578060011415611484565b6001600160a01b0384163b155b1561041057604051635274afe760e01b81526001600160a01b03851660048201526024016102aa565b60025460ff166107c257604051638dfc202b60e01b815260040160405180910390fd5b80356001600160a01b03811681146114e6575f5ffd5b919050565b5f5f83601f8401126114fb575f5ffd5b5081356001600160401b03811115611511575f5ffd5b6020830191508360208260051b850101111561152b575f5ffd5b9250929050565b5f5f5f5f60608587031215611545575f5ffd5b61154e856114d0565b935060208501356001600160401b03811115611568575f5ffd5b611574878288016114eb565b9598909750949560400135949350505050565b5f60208284031215611597575f5ffd5b813580151581146115a6575f5ffd5b9392505050565b5f5f83601f8401126115bd575f5ffd5b5081356001600160401b038111156115d3575f5ffd5b60208301915083602082850101111561152b575f5ffd5b5f5f5f5f5f5f5f5f5f60a08a8c031215611602575f5ffd5b61160b8a6114d0565b985060208a01356001600160401b03811115611625575f5ffd5b6116318c828d016114eb565b90995097505060408a01356001600160401b0381111561164f575f5ffd5b61165b8c828d016114eb565b90975095505060608a01356001600160401b03811115611679575f5ffd5b6116858c828d016114eb565b90955093505060808a01356001600160401b038111156116a3575f5ffd5b6116af8c828d016115ad565b915080935050809150509295985092959850929598565b5f602082840312156116d6575f5ffd5b5035919050565b5f5f5f5f5f606086880312156116f1575f5ffd5b6116fa866114d0565b945060208601356001600160401b03811115611714575f5ffd5b611720888289016114eb565b90955093505060408601356001600160401b0381111561173e575f5ffd5b61174a888289016114eb565b969995985093965092949392505050565b5f5f5f5f5f5f5f5f60a0898b031215611772575f5ffd5b61177b896114d0565b975060208901356001600160401b03811115611795575f5ffd5b6117a18b828c016114eb565b9098509650506040890135945060608901356001600160401b038111156117c6575f5ffd5b6117d28b828c016114eb565b90955093505060808901356001600160401b038111156117f0575f5ffd5b6117fc8b828c016115ad565b999c989b5096995094979396929594505050565b5f5f5f60608486031215611822575f5ffd5b61182b846114d0565b9250611839602085016114d0565b929592945050506040919091013590565b5f6020828403121561185a575f5ffd5b6115a6826114d0565b60208082526017908201527f42756c6b53656e6465723a20456d707479206172726179000000000000000000604082015260600190565b60208082526023908201527f42756c6b53656e6465723a204578636565647320726563697069656e74206c696040820152621b5a5d60ea1b606082015260800190565b60208082526029908201527f42756c6b53656e6465723a20416d6f756e74206d75737420626520677265617460408201526806572207468616e20360bc1b606082015260800190565b634e487b7160e01b5f52601160045260245ffd5b808202811582820484141761195157611951611926565b92915050565b634e487b7160e01b5f52603260045260245ffd5b6020808252601d908201527f42756c6b53656e6465723a20496e76616c696420726563697069656e74000000604082015260600190565b60208082526021908201527f42756c6b53656e6465723a20496e76616c696420746f6b656e206164647265736040820152607360f81b606082015260800190565b60208082526021908201527f42756c6b53656e6465723a204172726179206c656e677468206d69736d6174636040820152600d60fb1b606082015260800190565b8183525f6001600160fb1b03831115611a3b575f5ffd5b8260051b80836020870137939093016020019392505050565b8183526020830192505f815f5b84811015611a90576001600160a01b03611a7a836114d0565b1686526020958601959190910190600101611a61565b5093949350505050565b604081525f611aad604083018688611a24565b8281036020840152611ac0818587611a54565b979650505050505050565b8082018082111561195157611951611926565b5f60208284031215611aee575f5ffd5b5051919050565b6001600160a01b03878116825286166020820152604081018590526060810184905260a0608082018190528101829052818360c08301375f81830160c090810191909152601f909201601f1916010195945050505050565b606081525f611b6060608301888a611a24565b8281036020840152611b73818789611a24565b90508281036040840152611b88818587611a54565b9998505050505050505050565b634e487b7160e01b5f52604160045260245ffd5b606080825286519082018190525f9060208801906080840190835b81811015611be2578351835260209384019390920191600101611bc4565b50508381036020850152611bf781888a611a24565b9150508281036040840152611c0d818587611a54565b9897505050505050505056fea264697066735822122019c9c5da097d7d9461b61b208b50e99684704d55a3efa882e51ce2aeca9a57b364736f6c634300081c0033",
          "opcodes": "PUSH1 0x80 PUSH1 0x40 MSTORE PUSH1 0xC8 PUSH1 0x3 SSTORE CALLVALUE DUP1 ISZERO PUSH2 0x14 JUMPI PUSH0 PUSH0 REVERT JUMPDEST POP PUSH1 0x40 MLOAD PUSH2 0x1D4D CODESIZE SUB DUP1 PUSH2 0x1D4D DUP4 CODECOPY DUP2 ADD PUSH1 0x40 DUP2 SWAP1 MSTORE PUSH2 0x33 SWAP2 PUSH2 0xC4 JUMP JUMPDEST DUP1 PUSH1 0x1 PUSH1 0x1 PUSH1 0xA0 SHL SUB DUP2 AND PUSH2 0x61 JUMPI PUSH1 0x40 MLOAD PUSH4 0x1E4FBDF7 PUSH1 0xE0 SHL DUP2 MSTORE PUSH0 PUSH1 0x4 DUP3 ADD MSTORE PUSH1 0x24 ADD PUSH1 0x40 MLOAD DUP1 SWAP2 SUB SWAP1 REVERT JUMPDEST PUSH2 0x6A DUP2 PUSH2 0x75 JUMP JUMPDEST POP POP PUSH1 0x1 DUP1 SSTORE PUSH2 0xF1 JUMP JUMPDEST PUSH0 DUP1 SLOAD PUSH1 0x1 PUSH1 0x1 PUSH1 0xA0 SHL SUB DUP4 DUP2 AND PUSH1 0x1 PUSH1 0x1 PUSH1 0xA0 SHL SUB NOT DUP4 AND DUP2 OR DUP5 SSTORE PUSH1 0x40 MLOAD SWAP2 SWAP1 SWAP3 AND SWAP3 DUP4 SWAP2 PUSH32 0x8BE0079C531659141344CD1FD0A4F28419497F9722A3DAAFE3B4186F6B6457E0 SWAP2 SWAP1 LOG3 POP POP JUMP JUMPDEST PUSH0 PUSH1 0x20 DUP3 DUP5 SUB SLT ISZERO PUSH2 0xD4 JUMPI PUSH0 PUSH0 REVERT JUMPDEST DUP2 MLOAD PUSH1 0x1 PUSH1 0x1 PUSH1 0xA0 SHL SUB DUP2 AND DUP2 EQ PUSH2 0xEA JUMPI PUSH0 PUSH0 REVERT JUMPDEST SWAP4 SWAP3 POP POP POP JUMP JUMPDEST PUSH2 0x1C4F DUP1 PUSH2 0xFE PUSH0 CODECOPY PUSH0 RETURN INVALID PUSH1 0x80 PUSH1 0x40 MSTORE PUSH1 0x4 CALLDATASIZE LT PUSH2 0xE7 JUMPI PUSH0 CALLDATALOAD PUSH1 0xE0 SHR DUP1 PUSH4 0x8769EC7C GT PUSH2 0x87 JUMPI DUP1 PUSH4 0xE63EA408 GT PUSH2 0x57 JUMPI DUP1 PUSH4 0xE63EA408 EQ PUSH2 0x217 JUMPI DUP1 PUSH4 0xEA0A0463 EQ PUSH2 0x236 JUMPI DUP1 PUSH4 0xEF5114ED EQ PUSH2 0x24A JUMPI DUP1 PUSH4 0xF2FDE38B EQ PUSH2 0x25D JUMPI PUSH0 PUSH0 REVERT JUMPDEST DUP1 PUSH4 0x8769EC7C EQ PUSH2 0x1A7 JUMPI DUP1 PUSH4 0x8DA5CB5B EQ PUSH2 0x1BA JUMPI DUP1 PUSH4 0xB187BD26 EQ PUSH2 0x1E0 JUMPI DUP1 PUSH4 0xBA6CCB40 EQ PUSH2 0x1F4 JUMPI PUSH0 PUSH0 REVERT JUMPDEST DUP1 PUSH4 0x59624756 GT PUSH2 0xC2 JUMPI DUP1 PUSH4 0x59624756 EQ PUSH2 0x139 JUMPI DUP1 PUSH4 0x5C975ABB EQ PUSH2 0x158 JUMPI DUP1 PUSH4 0x7052D2B9 EQ PUSH2 0x180 JUMPI DUP1 PUSH4 0x715018A6 EQ PUSH2 0x193 JUMPI PUSH0 PUSH0 REVERT JUMPDEST DUP1 PUSH4 0x4A59160 EQ PUSH2 0xF2 JUMPI DUP1 PUSH4 0x16C38B3C EQ PUSH2 0x107 JUMPI DUP1 PUSH4 0x3CC00635 EQ PUSH2 0x126 JUMPI PUSH0 PUSH0 REVERT JUMPDEST CALLDATASIZE PUSH2 0xEE JUMPI STOP JUMPDEST PUSH0 PUSH0 REVERT JUMPDEST PUSH2 0x105 PUSH2 0x100 CALLDATASIZE PUSH1 0x4 PUSH2 0x1532 JUMP JUMPDEST PUSH2 0x27C JUMP JUMPDEST STOP JUMPDEST CALLVALUE DUP1 ISZERO PUSH2 0x112 JUMPI PUSH0 PUSH0 REVERT JUMPDEST POP PUSH2 0x105 PUSH2 0x121 CALLDATASIZE PUSH1 0x4 PUSH2 0x1587 JUMP JUMPDEST PUSH2 0x416 JUMP JUMPDEST PUSH2 0x105 PUSH2 0x134 CALLDATASIZE PUSH1 0x4 PUSH2 0x15EA JUMP JUMPDEST PUSH2 0x437 JUMP JUMPDEST CALLVALUE DUP1 ISZERO PUSH2 0x144 JUMPI PUSH0 PUSH0 REVERT JUMPDEST POP PUSH2 0x105 PUSH2 0x153 CALLDATASIZE PUSH1 0x4 PUSH2 0x16C6 JUMP JUMPDEST PUSH2 0x4FD JUMP JUMPDEST CALLVALUE DUP1 ISZERO PUSH2 0x163 JUMPI PUSH0 PUSH0 REVERT JUMPDEST POP PUSH1 0x2 SLOAD PUSH1 0xFF AND JUMPDEST PUSH1 0x40 MLOAD SWAP1 ISZERO ISZERO DUP2 MSTORE PUSH1 0x20 ADD JUMPDEST PUSH1 0x40 MLOAD DUP1 SWAP2 SUB SWAP1 RETURN JUMPDEST PUSH2 0x105 PUSH2 0x18E CALLDATASIZE PUSH1 0x4 PUSH2 0x16DD JUMP JUMPDEST PUSH2 0x5A0 JUMP JUMPDEST CALLVALUE DUP1 ISZERO PUSH2 0x19E JUMPI PUSH0 PUSH0 REVERT JUMPDEST POP PUSH2 0x105 PUSH2 0x7B1 JUMP JUMPDEST PUSH2 0x105 PUSH2 0x1B5 CALLDATASIZE PUSH1 0x4 PUSH2 0x175B JUMP JUMPDEST PUSH2 0x7C4 JUMP JUMPDEST CALLVALUE DUP1 ISZERO PUSH2 0x1C5 JUMPI PUSH0 PUSH0 REVERT JUMPDEST POP PUSH0 SLOAD PUSH1 0x40 MLOAD PUSH1 0x1 PUSH1 0x1 PUSH1 0xA0 SHL SUB SWAP1 SWAP2 AND DUP2 MSTORE PUSH1 0x20 ADD PUSH2 0x177 JUMP JUMPDEST CALLVALUE DUP1 ISZERO PUSH2 0x1EB JUMPI PUSH0 PUSH0 REVERT JUMPDEST POP PUSH2 0x16B PUSH2 0x87F JUMP JUMPDEST CALLVALUE DUP1 ISZERO PUSH2 0x1FF JUMPI PUSH0 PUSH0 REVERT JUMPDEST POP PUSH2 0x209 PUSH1 0x3 SLOAD DUP2 JUMP JUMPDEST PUSH1 0x40 MLOAD SWAP1 DUP2 MSTORE PUSH1 0x20 ADD PUSH2 0x177 JUMP JUMPDEST CALLVALUE DUP1 ISZERO PUSH2 0x222 JUMPI PUSH0 PUSH0 REVERT JUMPDEST POP PUSH2 0x105 PUSH2 0x231 CALLDATASIZE PUSH1 0x4 PUSH2 0x1810 JUMP JUMPDEST PUSH2 0x891 JUMP JUMPDEST CALLVALUE DUP1 ISZERO PUSH2 0x241 JUMPI PUSH0 PUSH0 REVERT JUMPDEST POP PUSH1 0x3 SLOAD PUSH2 0x209 JUMP JUMPDEST PUSH2 0x105 PUSH2 0x258 CALLDATASIZE PUSH1 0x4 PUSH2 0x16DD JUMP JUMPDEST PUSH2 0xA10 JUMP JUMPDEST CALLVALUE DUP1 ISZERO PUSH2 0x268 JUMPI PUSH0 PUSH0 REVERT JUMPDEST POP PUSH2 0x105 PUSH2 0x277 CALLDATASIZE PUSH1 0x4 PUSH2 0x184A JUMP JUMPDEST PUSH2 0xC20 JUMP JUMPDEST PUSH2 0x284 PUSH2 0xC5A JUMP JUMPDEST PUSH2 0x28C PUSH2 0xC84 JUMP JUMPDEST DUP2 DUP1 PUSH2 0x2B3 JUMPI PUSH1 0x40 MLOAD PUSH3 0x461BCD PUSH1 0xE5 SHL DUP2 MSTORE PUSH1 0x4 ADD PUSH2 0x2AA SWAP1 PUSH2 0x1863 JUMP JUMPDEST PUSH1 0x40 MLOAD DUP1 SWAP2 SUB SWAP1 REVERT JUMPDEST PUSH1 0x3 SLOAD DUP2 GT ISZERO PUSH2 0x2D5 JUMPI PUSH1 0x40 MLOAD PUSH3 0x461BCD PUSH1 0xE5 SHL DUP2 MSTORE PUSH1 0x4 ADD PUSH2 0x2AA SWAP1 PUSH2 0x189A JUMP JUMPDEST PUSH0 DUP3 GT PUSH2 0x2F4 JUMPI PUSH1 0x40 MLOAD PUSH3 0x461BCD PUSH1 0xE5 SHL DUP2 MSTORE PUSH1 0x4 ADD PUSH2 0x2AA SWAP1 PUSH2 0x18DD JUMP JUMPDEST PUSH0 PUSH2 0x2FF DUP5 DUP5 PUSH2 0x193A JUMP JUMPDEST SWAP1 POP PUSH2 0x30C DUP7 CALLER DUP4 PUSH2 0xCA8 JUMP JUMPDEST DUP6 PUSH2 0x322 PUSH1 0x1 PUSH1 0x1 PUSH1 0xA0 SHL SUB DUP3 AND CALLER ADDRESS DUP6 PUSH2 0xEC9 JUMP JUMPDEST PUSH0 JUMPDEST DUP6 DUP2 LT ISZERO PUSH2 0x3BD JUMPI PUSH0 DUP8 DUP8 DUP4 DUP2 DUP2 LT PUSH2 0x33F JUMPI PUSH2 0x33F PUSH2 0x1957 JUMP JUMPDEST SWAP1 POP PUSH1 0x20 MUL ADD PUSH1 0x20 DUP2 ADD SWAP1 PUSH2 0x354 SWAP2 SWAP1 PUSH2 0x184A JUMP JUMPDEST PUSH1 0x1 PUSH1 0x1 PUSH1 0xA0 SHL SUB AND SUB PUSH2 0x37A JUMPI PUSH1 0x40 MLOAD PUSH3 0x461BCD PUSH1 0xE5 SHL DUP2 MSTORE PUSH1 0x4 ADD PUSH2 0x2AA SWAP1 PUSH2 0x196B JUMP JUMPDEST PUSH2 0x3B5 DUP8 DUP8 DUP4 DUP2 DUP2 LT PUSH2 0x38F JUMPI PUSH2 0x38F PUSH2 0x1957 JUMP JUMPDEST SWAP1 POP PUSH1 0x20 MUL ADD PUSH1 0x20 DUP2 ADD SWAP1 PUSH2 0x3A4 SWAP2 SWAP1 PUSH2 0x184A JUMP JUMPDEST PUSH1 0x1 PUSH1 0x1 PUSH1 0xA0 SHL SUB DUP5 AND SWAP1 DUP8 PUSH2 0xF30 JUMP JUMPDEST PUSH1 0x1 ADD PUSH2 0x324 JUMP JUMPDEST POP PUSH1 0x40 DUP1 MLOAD DUP4 DUP2 MSTORE PUSH1 0x20 DUP2 ADD DUP8 SWAP1 MSTORE CALLER SWAP2 PUSH1 0x1 PUSH1 0x1 PUSH1 0xA0 SHL SUB DUP11 AND SWAP2 PUSH32 0x7EC79F40EA4B20C658C34D61E167B02589F7ABC3534EA5EEBCA3FCE93793DB48 SWAP2 ADD PUSH1 0x40 MLOAD DUP1 SWAP2 SUB SWAP1 LOG3 POP POP POP PUSH2 0x410 PUSH1 0x1 DUP1 SSTORE JUMP JUMPDEST POP POP POP POP JUMP JUMPDEST PUSH2 0x41E PUSH2 0xF61 JUMP JUMPDEST DUP1 ISZERO PUSH2 0x42F JUMPI PUSH2 0x42C PUSH2 0xF8D JUMP JUMPDEST POP JUMP JUMPDEST PUSH2 0x42C PUSH2 0xFE7 JUMP JUMPDEST PUSH2 0x43F PUSH2 0xC5A JUMP JUMPDEST PUSH2 0x447 PUSH2 0xC84 JUMP JUMPDEST DUP7 DUP1 PUSH2 0x465 JUMPI PUSH1 0x40 MLOAD PUSH3 0x461BCD PUSH1 0xE5 SHL DUP2 MSTORE PUSH1 0x4 ADD PUSH2 0x2AA SWAP1 PUSH2 0x1863 JUMP JUMPDEST PUSH1 0x3 SLOAD DUP2 GT ISZERO PUSH2 0x487 JUMPI PUSH1 0x40 MLOAD PUSH3 0x461BCD PUSH1 0xE5 SHL DUP2 MSTORE PUSH1 0x4 ADD PUSH2 0x2AA SWAP1 PUSH2 0x189A JUMP JUMPDEST PUSH1 0x1 PUSH1 0x1 PUSH1 0xA0 SHL SUB DUP11 AND PUSH2 0x4AD JUMPI PUSH1 0x40 MLOAD PUSH3 0x461BCD PUSH1 0xE5 SHL DUP2 MSTORE PUSH1 0x4 ADD PUSH2 0x2AA SWAP1 PUSH2 0x19A2 JUMP JUMPDEST DUP8 DUP7 EQ DUP1 ISZERO PUSH2 0x4BB JUMPI POP DUP6 DUP5 EQ JUMPDEST PUSH2 0x4D7 JUMPI PUSH1 0x40 MLOAD PUSH3 0x461BCD PUSH1 0xE5 SHL DUP2 MSTORE PUSH1 0x4 ADD PUSH2 0x2AA SWAP1 PUSH2 0x19E3 JUMP JUMPDEST PUSH2 0x4E8 DUP11 DUP11 DUP11 DUP11 DUP11 DUP11 DUP11 DUP11 DUP11 PUSH2 0x1020 JUMP JUMPDEST POP PUSH2 0x4F2 PUSH1 0x1 DUP1 SSTORE JUMP JUMPDEST POP POP POP POP POP POP POP POP POP JUMP JUMPDEST PUSH2 0x505 PUSH2 0xF61 JUMP JUMPDEST PUSH0 DUP2 GT PUSH2 0x565 JUMPI PUSH1 0x40 MLOAD PUSH3 0x461BCD PUSH1 0xE5 SHL DUP2 MSTORE PUSH1 0x20 PUSH1 0x4 DUP3 ADD MSTORE PUSH1 0x28 PUSH1 0x24 DUP3 ADD MSTORE PUSH32 0x42756C6B53656E6465723A204C696D6974206D75737420626520677265617465 PUSH1 0x44 DUP3 ADD MSTORE PUSH8 0x72207468616E203 PUSH1 0xC4 SHL PUSH1 0x64 DUP3 ADD MSTORE PUSH1 0x84 ADD PUSH2 0x2AA JUMP JUMPDEST PUSH1 0x3 DUP2 SWAP1 SSTORE PUSH1 0x40 MLOAD DUP2 DUP2 MSTORE PUSH32 0x2BED6CF51B7539809F75CE72D151C0D9F5C1C55F93E84B1CEA4C6911170B6140 SWAP1 PUSH1 0x20 ADD PUSH1 0x40 MLOAD DUP1 SWAP2 SUB SWAP1 LOG1 POP JUMP JUMPDEST PUSH2 0x5A8 PUSH2 0xC5A JUMP JUMPDEST PUSH2 0x5B0 PUSH2 0xC84 JUMP JUMPDEST DUP3 DUP1 PUSH2 0x5CE JUMPI PUSH1 0x40 MLOAD PUSH3 0x461BCD PUSH1 0xE5 SHL DUP2 MSTORE PUSH1 0x4 ADD PUSH2 0x2AA SWAP1 PUSH2 0x1863 JUMP JUMPDEST PUSH1 0x3 SLOAD DUP2 GT ISZERO PUSH2 0x5F0 JUMPI PUSH1 0x40 MLOAD PUSH3 0x461BCD PUSH1 0xE5 SHL DUP2 MSTORE PUSH1 0x4 ADD PUSH2 0x2AA SWAP1 PUSH2 0x189A JUMP JUMPDEST PUSH1 0x1 PUSH1 0x1 PUSH1 0xA0 SHL SUB DUP7 AND PUSH2 0x616 JUMPI PUSH1 0x40 MLOAD PUSH3 0x461BCD PUSH1 0xE5 SHL DUP2 MSTORE PUSH1 0x4 ADD PUSH2 0x2AA SWAP1 PUSH2 0x19A2 JUMP JUMPDEST DUP4 DUP3 EQ PUSH2 0x635 JUMPI PUSH1 0x40 MLOAD PUSH3 0x461BCD PUSH1 0xE5 SHL DUP2 MSTORE PUSH1 0x4 ADD PUSH2 0x2AA SWAP1 PUSH2 0x19E3 JUMP JUMPDEST DUP6 PUSH0 JUMPDEST DUP6 DUP2 LT ISZERO PUSH2 0x74D JUMPI PUSH0 DUP8 DUP8 DUP4 DUP2 DUP2 LT PUSH2 0x653 JUMPI PUSH2 0x653 PUSH2 0x1957 JUMP JUMPDEST SWAP1 POP PUSH1 0x20 MUL ADD PUSH1 0x20 DUP2 ADD SWAP1 PUSH2 0x668 SWAP2 SWAP1 PUSH2 0x184A JUMP JUMPDEST PUSH1 0x1 PUSH1 0x1 PUSH1 0xA0 SHL SUB AND SUB PUSH2 0x68E JUMPI PUSH1 0x40 MLOAD PUSH3 0x461BCD PUSH1 0xE5 SHL DUP2 MSTORE PUSH1 0x4 ADD PUSH2 0x2AA SWAP1 PUSH2 0x196B JUMP JUMPDEST DUP2 PUSH1 0x1 PUSH1 0x1 PUSH1 0xA0 SHL SUB AND PUSH4 0x42842E0E CALLER DUP10 DUP10 DUP6 DUP2 DUP2 LT PUSH2 0x6B0 JUMPI PUSH2 0x6B0 PUSH2 0x1957 JUMP JUMPDEST SWAP1 POP PUSH1 0x20 MUL ADD PUSH1 0x20 DUP2 ADD SWAP1 PUSH2 0x6C5 SWAP2 SWAP1 PUSH2 0x184A JUMP JUMPDEST DUP9 DUP9 DUP7 DUP2 DUP2 LT PUSH2 0x6D7 JUMPI PUSH2 0x6D7 PUSH2 0x1957 JUMP JUMPDEST PUSH1 0x40 MLOAD PUSH1 0x1 PUSH1 0x1 PUSH1 0xE0 SHL SUB NOT PUSH1 0xE0 DUP9 SWAP1 SHL AND DUP2 MSTORE PUSH1 0x1 PUSH1 0x1 PUSH1 0xA0 SHL SUB SWAP6 DUP7 AND PUSH1 0x4 DUP3 ADD MSTORE SWAP5 SWAP1 SWAP4 AND PUSH1 0x24 DUP6 ADD MSTORE POP PUSH1 0x20 SWAP1 SWAP2 MUL ADD CALLDATALOAD PUSH1 0x44 DUP3 ADD MSTORE PUSH1 0x64 ADD PUSH0 PUSH1 0x40 MLOAD DUP1 DUP4 SUB DUP2 PUSH0 DUP8 DUP1 EXTCODESIZE ISZERO DUP1 ISZERO PUSH2 0x72B JUMPI PUSH0 PUSH0 REVERT JUMPDEST POP GAS CALL ISZERO DUP1 ISZERO PUSH2 0x73D JUMPI RETURNDATASIZE PUSH0 PUSH0 RETURNDATACOPY RETURNDATASIZE PUSH0 REVERT JUMPDEST POP POP PUSH1 0x1 SWAP1 SWAP3 ADD SWAP2 POP PUSH2 0x638 SWAP1 POP JUMP JUMPDEST POP CALLER PUSH1 0x1 PUSH1 0x1 PUSH1 0xA0 SHL SUB AND DUP8 PUSH1 0x1 PUSH1 0x1 PUSH1 0xA0 SHL SUB AND PUSH32 0xB9D997FC4103799E2523371077F0206E376D61F19699302A45F0D945CC594D42 DUP7 DUP7 DUP11 DUP11 PUSH1 0x40 MLOAD PUSH2 0x797 SWAP5 SWAP4 SWAP3 SWAP2 SWAP1 PUSH2 0x1A9A JUMP JUMPDEST PUSH1 0x40 MLOAD DUP1 SWAP2 SUB SWAP1 LOG3 POP POP PUSH2 0x7AA PUSH1 0x1 DUP1 SSTORE JUMP JUMPDEST POP POP POP POP POP JUMP JUMPDEST PUSH2 0x7B9 PUSH2 0xF61 JUMP JUMPDEST PUSH2 0x7C2 PUSH0 PUSH2 0x11D7 JUMP JUMPDEST JUMP JUMPDEST PUSH2 0x7CC PUSH2 0xC5A JUMP JUMPDEST PUSH2 0x7D4 PUSH2 0xC84 JUMP JUMPDEST DUP6 DUP1 PUSH2 0x7F2 JUMPI PUSH1 0x40 MLOAD PUSH3 0x461BCD PUSH1 0xE5 SHL DUP2 MSTORE PUSH1 0x4 ADD PUSH2 0x2AA SWAP1 PUSH2 0x1863 JUMP JUMPDEST PUSH1 0x3 SLOAD DUP2 GT ISZERO PUSH2 0x814 JUMPI PUSH1 0x40 MLOAD PUSH3 0x461BCD PUSH1 0xE5 SHL DUP2 MSTORE PUSH1 0x4 ADD PUSH2 0x2AA SWAP1 PUSH2 0x189A JUMP JUMPDEST PUSH1 0x1 PUSH1 0x1 PUSH1 0xA0 SHL SUB DUP10 AND PUSH2 0x83A JUMPI PUSH1 0x40 MLOAD PUSH3 0x461BCD PUSH1 0xE5 SHL DUP2 MSTORE PUSH1 0x4 ADD PUSH2 0x2AA SWAP1 PUSH2 0x19A2 JUMP JUMPDEST DUP7 DUP5 EQ PUSH2 0x859 JUMPI PUSH1 0x40 MLOAD PUSH3 0x461BCD PUSH1 0xE5 SHL DUP2 MSTORE PUSH1 0x4 ADD PUSH2 0x2AA SWAP1 PUSH2 0x19E3 JUMP JUMPDEST PUSH2 0x86B DUP10 DUP10 DUP10 DUP10 DUP10 DUP10 DUP10 DUP10 PUSH1 0x1 PUSH2 0x1226 JUMP JUMPDEST POP PUSH2 0x875 PUSH1 0x1 DUP1 SSTORE JUMP JUMPDEST POP POP POP POP POP POP POP POP JUMP JUMPDEST PUSH0 PUSH2 0x88C PUSH1 0x2 SLOAD PUSH1 0xFF AND SWAP1 JUMP JUMPDEST SWAP1 POP SWAP1 JUMP JUMPDEST PUSH2 0x899 PUSH2 0xF61 JUMP JUMPDEST PUSH1 0x1 PUSH1 0x1 PUSH1 0xA0 SHL SUB DUP3 AND PUSH2 0x8EF JUMPI PUSH1 0x40 MLOAD PUSH3 0x461BCD PUSH1 0xE5 SHL DUP2 MSTORE PUSH1 0x20 PUSH1 0x4 DUP3 ADD MSTORE PUSH1 0x1B PUSH1 0x24 DUP3 ADD MSTORE PUSH32 0x42756C6B53656E6465723A20496E76616C696420616464726573730000000000 PUSH1 0x44 DUP3 ADD MSTORE PUSH1 0x64 ADD PUSH2 0x2AA JUMP JUMPDEST PUSH1 0x1 PUSH1 0x1 PUSH1 0xA0 SHL SUB DUP4 AND PUSH2 0x9F7 JUMPI SELFBALANCE DUP1 DUP3 GT ISZERO PUSH2 0x94E JUMPI PUSH1 0x40 MLOAD PUSH3 0x461BCD PUSH1 0xE5 SHL DUP2 MSTORE PUSH1 0x20 PUSH1 0x4 DUP3 ADD DUP2 SWAP1 MSTORE PUSH1 0x24 DUP3 ADD MSTORE PUSH32 0x42756C6B53656E6465723A20496E73756666696369656E742062616C616E6365 PUSH1 0x44 DUP3 ADD MSTORE PUSH1 0x64 ADD PUSH2 0x2AA JUMP JUMPDEST PUSH0 DUP4 PUSH1 0x1 PUSH1 0x1 PUSH1 0xA0 SHL SUB AND DUP4 PUSH1 0x40 MLOAD PUSH0 PUSH1 0x40 MLOAD DUP1 DUP4 SUB DUP2 DUP6 DUP8 GAS CALL SWAP3 POP POP POP RETURNDATASIZE DUP1 PUSH0 DUP2 EQ PUSH2 0x997 JUMPI PUSH1 0x40 MLOAD SWAP2 POP PUSH1 0x1F NOT PUSH1 0x3F RETURNDATASIZE ADD AND DUP3 ADD PUSH1 0x40 MSTORE RETURNDATASIZE DUP3 MSTORE RETURNDATASIZE PUSH0 PUSH1 0x20 DUP5 ADD RETURNDATACOPY PUSH2 0x99C JUMP JUMPDEST PUSH1 0x60 SWAP2 POP JUMPDEST POP POP SWAP1 POP DUP1 PUSH2 0x7AA JUMPI PUSH1 0x40 MLOAD PUSH3 0x461BCD PUSH1 0xE5 SHL DUP2 MSTORE PUSH1 0x20 PUSH1 0x4 DUP3 ADD MSTORE PUSH1 0x21 PUSH1 0x24 DUP3 ADD MSTORE PUSH32 0x42756C6B53656E6465723A20455448207769746864726177616C206661696C65 PUSH1 0x44 DUP3 ADD MSTORE PUSH1 0x19 PUSH1 0xFA SHL PUSH1 0x64 DUP3 ADD MSTORE PUSH1 0x84 ADD PUSH2 0x2AA JUMP JUMPDEST PUSH2 0xA0B PUSH1 0x1 PUSH1 0x1 PUSH1 0xA0 SHL SUB DUP5 AND DUP4 DUP4 PUSH2 0xF30 JUMP JUMPDEST POP POP POP JUMP JUMPDEST PUSH2 0xA18 PUSH2 0xC5A JUMP JUMPDEST PUSH2 0xA20 PUSH2 0xC84 JUMP JUMPDEST DUP3 DUP1 PUSH2 0xA3E JUMPI PUSH1 0x40 MLOAD PUSH3 0x461BCD PUSH1 0xE5 SHL DUP2 MSTORE PUSH1 0x4 ADD PUSH2 0x2AA SWAP1 PUSH2 0x1863 JUMP JUMPDEST PUSH1 0x3 SLOAD DUP2 GT ISZERO PUSH2 0xA60 JUMPI PUSH1 0x40 MLOAD PUSH3 0x461BCD PUSH1 0xE5 SHL DUP2 MSTORE PUSH1 0x4 ADD PUSH2 0x2AA SWAP1 PUSH2 0x189A JUMP JUMPDEST DUP4 DUP3 EQ PUSH2 0xA7F JUMPI PUSH1 0x40 MLOAD PUSH3 0x461BCD PUSH1 0xE5 SHL DUP2 MSTORE PUSH1 0x4 ADD PUSH2 0x2AA SWAP1 PUSH2 0x19E3 JUMP JUMPDEST PUSH0 DUP1 JUMPDEST DUP4 DUP2 LT ISZERO PUSH2 0xAEF JUMPI PUSH0 DUP6 DUP6 DUP4 DUP2 DUP2 LT PUSH2 0xA9D JUMPI PUSH2 0xA9D PUSH2 0x1957 JUMP JUMPDEST SWAP1 POP PUSH1 0x20 MUL ADD CALLDATALOAD GT PUSH2 0xAC1 JUMPI PUSH1 0x40 MLOAD PUSH3 0x461BCD PUSH1 0xE5 SHL DUP2 MSTORE PUSH1 0x4 ADD PUSH2 0x2AA SWAP1 PUSH2 0x18DD JUMP JUMPDEST DUP5 DUP5 DUP3 DUP2 DUP2 LT PUSH2 0xAD3 JUMPI PUSH2 0xAD3 PUSH2 0x1957 JUMP JUMPDEST SWAP1 POP PUSH1 0x20 MUL ADD CALLDATALOAD DUP3 PUSH2 0xAE5 SWAP2 SWAP1 PUSH2 0x1ACB JUMP JUMPDEST SWAP2 POP PUSH1 0x1 ADD PUSH2 0xA82 JUMP JUMPDEST POP PUSH2 0xAFB DUP8 CALLER DUP4 PUSH2 0xCA8 JUMP JUMPDEST DUP7 PUSH2 0xB11 PUSH1 0x1 PUSH1 0x1 PUSH1 0xA0 SHL SUB DUP3 AND CALLER ADDRESS DUP6 PUSH2 0xEC9 JUMP JUMPDEST PUSH0 JUMPDEST DUP7 DUP2 LT ISZERO PUSH2 0xBCD JUMPI PUSH0 DUP9 DUP9 DUP4 DUP2 DUP2 LT PUSH2 0xB2E JUMPI PUSH2 0xB2E PUSH2 0x1957 JUMP JUMPDEST SWAP1 POP PUSH1 0x20 MUL ADD PUSH1 0x20 DUP2 ADD SWAP1 PUSH2 0xB43 SWAP2 SWAP1 PUSH2 0x184A JUMP JUMPDEST PUSH1 0x1 PUSH1 0x1 PUSH1 0xA0 SHL SUB AND SUB PUSH2 0xB69 JUMPI PUSH1 0x40 MLOAD PUSH3 0x461BCD PUSH1 0xE5 SHL DUP2 MSTORE PUSH1 0x4 ADD PUSH2 0x2AA SWAP1 PUSH2 0x196B JUMP JUMPDEST PUSH2 0xBC5 DUP9 DUP9 DUP4 DUP2 DUP2 LT PUSH2 0xB7E JUMPI PUSH2 0xB7E PUSH2 0x1957 JUMP JUMPDEST SWAP1 POP PUSH1 0x20 MUL ADD PUSH1 0x20 DUP2 ADD SWAP1 PUSH2 0xB93 SWAP2 SWAP1 PUSH2 0x184A JUMP JUMPDEST DUP8 DUP8 DUP5 DUP2 DUP2 LT PUSH2 0xBA5 JUMPI PUSH2 0xBA5 PUSH2 0x1957 JUMP JUMPDEST SWAP1 POP PUSH1 0x20 MUL ADD CALLDATALOAD DUP5 PUSH1 0x1 PUSH1 0x1 PUSH1 0xA0 SHL SUB AND PUSH2 0xF30 SWAP1 SWAP3 SWAP2 SWAP1 PUSH4 0xFFFFFFFF AND JUMP JUMPDEST PUSH1 0x1 ADD PUSH2 0xB13 JUMP JUMPDEST POP PUSH1 0x40 DUP1 MLOAD DUP4 DUP2 MSTORE PUSH1 0x20 DUP2 ADD DUP9 SWAP1 MSTORE CALLER SWAP2 PUSH1 0x1 PUSH1 0x1 PUSH1 0xA0 SHL SUB DUP12 AND SWAP2 PUSH32 0x7EC79F40EA4B20C658C34D61E167B02589F7ABC3534EA5EEBCA3FCE93793DB48 SWAP2 ADD PUSH1 0x40 MLOAD DUP1 SWAP2 SUB SWAP1 LOG3 POP POP POP PUSH2 0x7AA PUSH1 0x1 DUP1 SSTORE JUMP JUMPDEST PUSH2 0xC28 PUSH2 0xF61 JUMP JUMPDEST PUSH1 0x1 PUSH1 0x1 PUSH1 0xA0 SHL SUB DUP2 AND PUSH2 0xC51 JUMPI PUSH1 0x40 MLOAD PUSH4 0x1E4FBDF7 PUSH1 0xE0 SHL DUP2 MSTORE PUSH0 PUSH1 0x4 DUP3 ADD MSTORE PUSH1 0x24 ADD PUSH2 0x2AA JUMP JUMPDEST PUSH2 0x42C DUP2 PUSH2 0x11D7 JUMP JUMPDEST PUSH1 0x2 PUSH1 0x1 SLOAD SUB PUSH2 0xC7D JUMPI PUSH1 0x40 MLOAD PUSH4 0x3EE5AEB5 PUSH1 0xE0 SHL DUP2 MSTORE PUSH1 0x4 ADD PUSH1 0x40 MLOAD DUP1 SWAP2 SUB SWAP1 REVERT JUMPDEST PUSH1 0x2 PUSH1 0x1 SSTORE JUMP JUMPDEST PUSH1 0x2 SLOAD PUSH1 0xFF AND ISZERO PUSH2 0x7C2 JUMPI PUSH1 0x40 MLOAD PUSH4 0xD93C0665 PUSH1 0xE0 SHL DUP2 MSTORE PUSH1 0x4 ADD PUSH1 0x40 MLOAD DUP1 SWAP2 SUB SWAP1 REVERT JUMPDEST PUSH1 0x1 PUSH1 0x1 PUSH1 0xA0 SHL SUB DUP4 AND PUSH2 0xCCE JUMPI PUSH1 0x40 MLOAD PUSH3 0x461BCD PUSH1 0xE5 SHL DUP2 MSTORE PUSH1 0x4 ADD PUSH2 0x2AA SWAP1 PUSH2 0x19A2 JUMP JUMPDEST PUSH0 DUP2 GT PUSH2 0xD35 JUMPI PUSH1 0x40 MLOAD PUSH3 0x461BCD PUSH1 0xE5 SHL DUP2 MSTORE PUSH1 0x20 PUSH1 0x4 DUP3 ADD MSTORE PUSH1 0x2F PUSH1 0x24 DUP3 ADD MSTORE PUSH32 0x42756C6B53656E6465723A20546F74616C20616D6F756E74206D757374206265 PUSH1 0x44 DUP3 ADD MSTORE PUSH15 0x2067726561746572207468616E203 PUSH1 0x8C SHL PUSH1 0x64 DUP3 ADD MSTORE PUSH1 0x84 ADD PUSH2 0x2AA JUMP JUMPDEST PUSH1 0x40 MLOAD PUSH4 0x6EB1769F PUSH1 0xE1 SHL DUP2 MSTORE PUSH1 0x1 PUSH1 0x1 PUSH1 0xA0 SHL SUB DUP4 DUP2 AND PUSH1 0x4 DUP4 ADD MSTORE ADDRESS PUSH1 0x24 DUP4 ADD MSTORE DUP5 SWAP2 PUSH0 SWAP2 DUP4 AND SWAP1 PUSH4 0xDD62ED3E SWAP1 PUSH1 0x44 ADD PUSH1 0x20 PUSH1 0x40 MLOAD DUP1 DUP4 SUB DUP2 DUP7 GAS STATICCALL ISZERO DUP1 ISZERO PUSH2 0xD83 JUMPI RETURNDATASIZE PUSH0 PUSH0 RETURNDATACOPY RETURNDATASIZE PUSH0 REVERT JUMPDEST POP POP POP POP PUSH1 0x40 MLOAD RETURNDATASIZE PUSH1 0x1F NOT PUSH1 0x1F DUP3 ADD AND DUP3 ADD DUP1 PUSH1 0x40 MSTORE POP DUP2 ADD SWAP1 PUSH2 0xDA7 SWAP2 SWAP1 PUSH2 0x1ADE JUMP JUMPDEST SWAP1 POP DUP3 DUP2 LT ISZERO PUSH2 0xE04 JUMPI PUSH1 0x40 MLOAD PUSH3 0x461BCD PUSH1 0xE5 SHL DUP2 MSTORE PUSH1 0x20 PUSH1 0x4 DUP3 ADD MSTORE PUSH1 0x22 PUSH1 0x24 DUP3 ADD MSTORE PUSH32 0x42756C6B53656E6465723A20496E73756666696369656E7420616C6C6F77616E PUSH1 0x44 DUP3 ADD MSTORE PUSH2 0x6365 PUSH1 0xF0 SHL PUSH1 0x64 DUP3 ADD MSTORE PUSH1 0x84 ADD PUSH2 0x2AA JUMP JUMPDEST PUSH1 0x40 MLOAD PUSH4 0x70A08231 PUSH1 0xE0 SHL DUP2 MSTORE PUSH1 0x1 PUSH1 0x1 PUSH1 0xA0 SHL SUB DUP6 DUP2 AND PUSH1 0x4 DUP4 ADD MSTORE PUSH0 SWAP2 SWAP1 DUP5 AND SWAP1 PUSH4 0x70A08231 SWAP1 PUSH1 0x24 ADD PUSH1 0x20 PUSH1 0x40 MLOAD DUP1 DUP4 SUB DUP2 DUP7 GAS STATICCALL ISZERO DUP1 ISZERO PUSH2 0xE4B JUMPI RETURNDATASIZE PUSH0 PUSH0 RETURNDATACOPY RETURNDATASIZE PUSH0 REVERT JUMPDEST POP POP POP POP PUSH1 0x40 MLOAD RETURNDATASIZE PUSH1 0x1F NOT PUSH1 0x1F DUP3 ADD AND DUP3 ADD DUP1 PUSH1 0x40 MSTORE POP DUP2 ADD SWAP1 PUSH2 0xE6F SWAP2 SWAP1 PUSH2 0x1ADE JUMP JUMPDEST SWAP1 POP DUP4 DUP2 LT ISZERO PUSH2 0xEC1 JUMPI PUSH1 0x40 MLOAD PUSH3 0x461BCD PUSH1 0xE5 SHL DUP2 MSTORE PUSH1 0x20 PUSH1 0x4 DUP3 ADD DUP2 SWAP1 MSTORE PUSH1 0x24 DUP3 ADD MSTORE PUSH32 0x42756C6B53656E6465723A20496E73756666696369656E742062616C616E6365 PUSH1 0x44 DUP3 ADD MSTORE PUSH1 0x64 ADD PUSH2 0x2AA JUMP JUMPDEST POP POP POP POP POP POP JUMP JUMPDEST PUSH1 0x40 MLOAD PUSH1 0x1 PUSH1 0x1 PUSH1 0xA0 SHL SUB DUP5 DUP2 AND PUSH1 0x24 DUP4 ADD MSTORE DUP4 DUP2 AND PUSH1 0x44 DUP4 ADD MSTORE PUSH1 0x64 DUP3 ADD DUP4 SWAP1 MSTORE PUSH2 0x410 SWAP2 DUP7 SWAP2 DUP3 AND SWAP1 PUSH4 0x23B872DD SWAP1 PUSH1 0x84 ADD JUMPDEST PUSH1 0x40 MLOAD PUSH1 0x20 DUP2 DUP4 SUB SUB DUP2 MSTORE SWAP1 PUSH1 0x40 MSTORE SWAP2 POP PUSH1 0xE0 SHL PUSH1 0x20 DUP3 ADD DUP1 MLOAD PUSH1 0x1 PUSH1 0x1 PUSH1 0xE0 SHL SUB DUP4 DUP2 DUP4 AND OR DUP4 MSTORE POP POP POP POP PUSH2 0x1441 JUMP JUMPDEST PUSH1 0x40 MLOAD PUSH1 0x1 PUSH1 0x1 PUSH1 0xA0 SHL SUB DUP4 DUP2 AND PUSH1 0x24 DUP4 ADD MSTORE PUSH1 0x44 DUP3 ADD DUP4 SWAP1 MSTORE PUSH2 0xA0B SWAP2 DUP6 SWAP2 DUP3 AND SWAP1 PUSH4 0xA9059CBB SWAP1 PUSH1 0x64 ADD PUSH2 0xEFE JUMP JUMPDEST PUSH0 SLOAD PUSH1 0x1 PUSH1 0x1 PUSH1 0xA0 SHL SUB AND CALLER EQ PUSH2 0x7C2 JUMPI PUSH1 0x40 MLOAD PUSH4 0x118CDAA7 PUSH1 0xE0 SHL DUP2 MSTORE CALLER PUSH1 0x4 DUP3 ADD MSTORE PUSH1 0x24 ADD PUSH2 0x2AA JUMP JUMPDEST PUSH2 0xF95 PUSH2 0xC84 JUMP JUMPDEST PUSH1 0x2 DUP1 SLOAD PUSH1 0xFF NOT AND PUSH1 0x1 OR SWAP1 SSTORE PUSH32 0x62E78CEA01BEE320CD4E420270B5EA74000D11B0C9F74754EBDBFC544B05A258 PUSH2 0xFCA CALLER SWAP1 JUMP JUMPDEST PUSH1 0x40 MLOAD PUSH1 0x1 PUSH1 0x1 PUSH1 0xA0 SHL SUB SWAP1 SWAP2 AND DUP2 MSTORE PUSH1 0x20 ADD PUSH1 0x40 MLOAD DUP1 SWAP2 SUB SWAP1 LOG1 JUMP JUMPDEST PUSH2 0xFEF PUSH2 0x14AD JUMP JUMPDEST PUSH1 0x2 DUP1 SLOAD PUSH1 0xFF NOT AND SWAP1 SSTORE PUSH32 0x5DB9EE0A495BF2E6FF9C91A7834C1BA4FDD244A5E8AA4E537BD38AEAE4B073AA CALLER PUSH2 0xFCA JUMP JUMPDEST DUP9 PUSH0 JUMPDEST DUP9 DUP2 LT ISZERO PUSH2 0x1175 JUMPI PUSH0 DUP11 DUP11 DUP4 DUP2 DUP2 LT PUSH2 0x103E JUMPI PUSH2 0x103E PUSH2 0x1957 JUMP JUMPDEST SWAP1 POP PUSH1 0x20 MUL ADD PUSH1 0x20 DUP2 ADD SWAP1 PUSH2 0x1053 SWAP2 SWAP1 PUSH2 0x184A JUMP JUMPDEST PUSH1 0x1 PUSH1 0x1 PUSH1 0xA0 SHL SUB AND SUB PUSH2 0x1079 JUMPI PUSH1 0x40 MLOAD PUSH3 0x461BCD PUSH1 0xE5 SHL DUP2 MSTORE PUSH1 0x4 ADD PUSH2 0x2AA SWAP1 PUSH2 0x196B JUMP JUMPDEST PUSH0 DUP7 DUP7 DUP4 DUP2 DUP2 LT PUSH2 0x108C JUMPI PUSH2 0x108C PUSH2 0x1957 JUMP JUMPDEST SWAP1 POP PUSH1 0x20 MUL ADD CALLDATALOAD GT PUSH2 0x10B0 JUMPI PUSH1 0x40 MLOAD PUSH3 0x461BCD PUSH1 0xE5 SHL DUP2 MSTORE PUSH1 0x4 ADD PUSH2 0x2AA SWAP1 PUSH2 0x18DD JUMP JUMPDEST DUP2 PUSH1 0x1 PUSH1 0x1 PUSH1 0xA0 SHL SUB AND PUSH4 0xF242432A CALLER DUP13 DUP13 DUP6 DUP2 DUP2 LT PUSH2 0x10D2 JUMPI PUSH2 0x10D2 PUSH2 0x1957 JUMP JUMPDEST SWAP1 POP PUSH1 0x20 MUL ADD PUSH1 0x20 DUP2 ADD SWAP1 PUSH2 0x10E7 SWAP2 SWAP1 PUSH2 0x184A JUMP JUMPDEST DUP12 DUP12 DUP7 DUP2 DUP2 LT PUSH2 0x10F9 JUMPI PUSH2 0x10F9 PUSH2 0x1957 JUMP JUMPDEST SWAP1 POP PUSH1 0x20 MUL ADD CALLDATALOAD DUP11 DUP11 DUP8 DUP2 DUP2 LT PUSH2 0x1112 JUMPI PUSH2 0x1112 PUSH2 0x1957 JUMP JUMPDEST SWAP1 POP PUSH1 0x20 MUL ADD CALLDATALOAD DUP10 DUP10 PUSH1 0x40 MLOAD DUP8 PUSH4 0xFFFFFFFF AND PUSH1 0xE0 SHL DUP2 MSTORE PUSH1 0x4 ADD PUSH2 0x113C SWAP7 SWAP6 SWAP5 SWAP4 SWAP3 SWAP2 SWAP1 PUSH2 0x1AF5 JUMP JUMPDEST PUSH0 PUSH1 0x40 MLOAD DUP1 DUP4 SUB DUP2 PUSH0 DUP8 DUP1 EXTCODESIZE ISZERO DUP1 ISZERO PUSH2 0x1153 JUMPI PUSH0 PUSH0 REVERT JUMPDEST POP GAS CALL ISZERO DUP1 ISZERO PUSH2 0x1165 JUMPI RETURNDATASIZE PUSH0 PUSH0 RETURNDATACOPY RETURNDATASIZE PUSH0 REVERT JUMPDEST POP POP PUSH1 0x1 SWAP1 SWAP3 ADD SWAP2 POP PUSH2 0x1023 SWAP1 POP JUMP JUMPDEST POP CALLER PUSH1 0x1 PUSH1 0x1 PUSH1 0xA0 SHL SUB AND DUP11 PUSH1 0x1 PUSH1 0x1 PUSH1 0xA0 SHL SUB AND PUSH32 0xD9A609FB8004C27B22CCA523071B055175F239379E2E85A854478E1BD1B9C247 DUP10 DUP10 DUP10 DUP10 DUP16 DUP16 PUSH1 0x40 MLOAD PUSH2 0x11C3 SWAP7 SWAP6 SWAP5 SWAP4 SWAP3 SWAP2 SWAP1 PUSH2 0x1B4D JUMP JUMPDEST PUSH1 0x40 MLOAD DUP1 SWAP2 SUB SWAP1 LOG3 POP POP POP POP POP POP POP POP POP POP JUMP JUMPDEST PUSH0 DUP1 SLOAD PUSH1 0x1 PUSH1 0x1 PUSH1 0xA0 SHL SUB DUP4 DUP2 AND PUSH1 0x1 PUSH1 0x1 PUSH1 0xA0 SHL SUB NOT DUP4 AND DUP2 OR DUP5 SSTORE PUSH1 0x40 MLOAD SWAP2 SWAP1 SWAP3 AND SWAP3 DUP4 SWAP2 PUSH32 0x8BE0079C531659141344CD1FD0A4F28419497F9722A3DAAFE3B4186F6B6457E0 SWAP2 SWAP1 LOG3 POP POP JUMP JUMPDEST DUP9 PUSH0 JUMPDEST DUP9 DUP2 LT ISZERO PUSH2 0x1363 JUMPI PUSH0 DUP11 DUP11 DUP4 DUP2 DUP2 LT PUSH2 0x1244 JUMPI PUSH2 0x1244 PUSH2 0x1957 JUMP JUMPDEST SWAP1 POP PUSH1 0x20 MUL ADD PUSH1 0x20 DUP2 ADD SWAP1 PUSH2 0x1259 SWAP2 SWAP1 PUSH2 0x184A JUMP JUMPDEST PUSH1 0x1 PUSH1 0x1 PUSH1 0xA0 SHL SUB AND SUB PUSH2 0x127F JUMPI PUSH1 0x40 MLOAD PUSH3 0x461BCD PUSH1 0xE5 SHL DUP2 MSTORE PUSH1 0x4 ADD PUSH2 0x2AA SWAP1 PUSH2 0x196B JUMP JUMPDEST PUSH0 DUP8 DUP8 DUP4 DUP2 DUP2 LT PUSH2 0x1292 JUMPI PUSH2 0x1292 PUSH2 0x1957 JUMP JUMPDEST SWAP1 POP PUSH1 0x20 MUL ADD CALLDATALOAD GT PUSH2 0x12B6 JUMPI PUSH1 0x40 MLOAD PUSH3 0x461BCD PUSH1 0xE5 SHL DUP2 MSTORE PUSH1 0x4 ADD PUSH2 0x2AA SWAP1 PUSH2 0x18DD JUMP JUMPDEST DUP2 PUSH1 0x1 PUSH1 0x1 PUSH1 0xA0 SHL SUB AND PUSH4 0xF242432A CALLER DUP13 DUP13 DUP6 DUP2 DUP2 LT PUSH2 0x12D8 JUMPI PUSH2 0x12D8 PUSH2 0x1957 JUMP JUMPDEST SWAP1 POP PUSH1 0x20 MUL ADD PUSH1 0x20 DUP2 ADD SWAP1 PUSH2 0x12ED SWAP2 SWAP1 PUSH2 0x184A JUMP JUMPDEST DUP12 DUP12 DUP12 DUP8 DUP2 DUP2 LT PUSH2 0x1300 JUMPI PUSH2 0x1300 PUSH2 0x1957 JUMP JUMPDEST SWAP1 POP PUSH1 0x20 MUL ADD CALLDATALOAD DUP11 DUP11 PUSH1 0x40 MLOAD DUP8 PUSH4 0xFFFFFFFF AND PUSH1 0xE0 SHL DUP2 MSTORE PUSH1 0x4 ADD PUSH2 0x132A SWAP7 SWAP6 SWAP5 SWAP4 SWAP3 SWAP2 SWAP1 PUSH2 0x1AF5 JUMP JUMPDEST PUSH0 PUSH1 0x40 MLOAD DUP1 DUP4 SUB DUP2 PUSH0 DUP8 DUP1 EXTCODESIZE ISZERO DUP1 ISZERO PUSH2 0x1341 JUMPI PUSH0 PUSH0 REVERT JUMPDEST POP GAS CALL ISZERO DUP1 ISZERO PUSH2 0x1353 JUMPI RETURNDATASIZE PUSH0 PUSH0 RETURNDATACOPY RETURNDATASIZE PUSH0 REVERT JUMPDEST POP POP PUSH1 0x1 SWAP1 SWAP3 ADD SWAP2 POP PUSH2 0x1229 SWAP1 POP JUMP JUMPDEST POP DUP2 ISZERO PUSH2 0x1435 JUMPI PUSH0 DUP9 PUSH1 0x1 PUSH1 0x1 PUSH1 0x40 SHL SUB DUP2 GT ISZERO PUSH2 0x1383 JUMPI PUSH2 0x1383 PUSH2 0x1B95 JUMP JUMPDEST PUSH1 0x40 MLOAD SWAP1 DUP1 DUP3 MSTORE DUP1 PUSH1 0x20 MUL PUSH1 0x20 ADD DUP3 ADD PUSH1 0x40 MSTORE DUP1 ISZERO PUSH2 0x13AC JUMPI DUP2 PUSH1 0x20 ADD PUSH1 0x20 DUP3 MUL DUP1 CALLDATASIZE DUP4 CALLDATACOPY ADD SWAP1 POP JUMPDEST POP SWAP1 POP PUSH0 JUMPDEST DUP10 DUP2 LT ISZERO PUSH2 0x13DF JUMPI DUP9 DUP3 DUP3 DUP2 MLOAD DUP2 LT PUSH2 0x13CC JUMPI PUSH2 0x13CC PUSH2 0x1957 JUMP JUMPDEST PUSH1 0x20 SWAP1 DUP2 MUL SWAP2 SWAP1 SWAP2 ADD ADD MSTORE PUSH1 0x1 ADD PUSH2 0x13B1 JUMP JUMPDEST POP CALLER PUSH1 0x1 PUSH1 0x1 PUSH1 0xA0 SHL SUB AND DUP12 PUSH1 0x1 PUSH1 0x1 PUSH1 0xA0 SHL SUB AND PUSH32 0xD9A609FB8004C27B22CCA523071B055175F239379E2E85A854478E1BD1B9C247 DUP4 DUP11 DUP11 DUP16 DUP16 PUSH1 0x40 MLOAD PUSH2 0x142B SWAP6 SWAP5 SWAP4 SWAP3 SWAP2 SWAP1 PUSH2 0x1BA9 JUMP JUMPDEST PUSH1 0x40 MLOAD DUP1 SWAP2 SUB SWAP1 LOG3 POP JUMPDEST POP POP POP POP POP POP POP POP POP POP JUMP JUMPDEST PUSH0 PUSH0 PUSH1 0x20 PUSH0 DUP5 MLOAD PUSH1 0x20 DUP7 ADD PUSH0 DUP9 GAS CALL DUP1 PUSH2 0x1460 JUMPI PUSH1 0x40 MLOAD RETURNDATASIZE PUSH0 DUP3 RETURNDATACOPY RETURNDATASIZE DUP2 REVERT JUMPDEST POP POP PUSH0 MLOAD RETURNDATASIZE SWAP2 POP DUP2 ISZERO PUSH2 0x1477 JUMPI DUP1 PUSH1 0x1 EQ ISZERO PUSH2 0x1484 JUMP JUMPDEST PUSH1 0x1 PUSH1 0x1 PUSH1 0xA0 SHL SUB DUP5 AND EXTCODESIZE ISZERO JUMPDEST ISZERO PUSH2 0x410 JUMPI PUSH1 0x40 MLOAD PUSH4 0x5274AFE7 PUSH1 0xE0 SHL DUP2 MSTORE PUSH1 0x1 PUSH1 0x1 PUSH1 0xA0 SHL SUB DUP6 AND PUSH1 0x4 DUP3 ADD MSTORE PUSH1 0x24 ADD PUSH2 0x2AA JUMP JUMPDEST PUSH1 0x2 SLOAD PUSH1 0xFF AND PUSH2 0x7C2 JUMPI PUSH1 0x40 MLOAD PUSH4 0x8DFC202B PUSH1 0xE0 SHL DUP2 MSTORE PUSH1 0x4 ADD PUSH1 0x40 MLOAD DUP1 SWAP2 SUB SWAP1 REVERT JUMPDEST DUP1 CALLDATALOAD PUSH1 0x1 PUSH1 0x1 PUSH1 0xA0 SHL SUB DUP2 AND DUP2 EQ PUSH2 0x14E6 JUMPI PUSH0 PUSH0 REVERT JUMPDEST SWAP2 SWAP1 POP JUMP JUMPDEST PUSH0 PUSH0 DUP4 PUSH1 0x1F DUP5 ADD SLT PUSH2 0x14FB JUMPI PUSH0 PUSH0 REVERT JUMPDEST POP DUP2 CALLDATALOAD PUSH1 0x1 PUSH1 0x1 PUSH1 0x40 SHL SUB DUP2 GT ISZERO PUSH2 0x1511 JUMPI PUSH0 PUSH0 REVERT JUMPDEST PUSH1 0x20 DUP4 ADD SWAP2 POP DUP4 PUSH1 0x20 DUP3 PUSH1 0x5 SHL DUP6 ADD ADD GT ISZERO PUSH2 0x152B JUMPI PUSH0 PUSH0 REVERT JUMPDEST SWAP3 POP SWAP3 SWAP1 POP JUMP JUMPDEST PUSH0 PUSH0 PUSH0 PUSH0 PUSH1 0x60 DUP6 DUP8 SUB SLT ISZERO PUSH2 0x1545 JUMPI PUSH0 PUSH0 REVERT JUMPDEST PUSH2 0x154E DUP6 PUSH2 0x14D0 JUMP JUMPDEST SWAP4 POP PUSH1 0x20 DUP6 ADD CALLDATALOAD PUSH1 0x1 PUSH1 0x1 PUSH1 0x40 SHL SUB DUP2 GT ISZERO PUSH2 0x1568 JUMPI PUSH0 PUSH0 REVERT JUMPDEST PUSH2 0x1574 DUP8 DUP3 DUP9 ADD PUSH2 0x14EB JUMP JUMPDEST SWAP6 SWAP9 SWAP1 SWAP8 POP SWAP5 SWAP6 PUSH1 0x40 ADD CALLDATALOAD SWAP5 SWAP4 POP POP POP POP JUMP JUMPDEST PUSH0 PUSH1 0x20 DUP3 DUP5 SUB SLT ISZERO PUSH2 0x1597 JUMPI PUSH0 PUSH0 REVERT JUMPDEST DUP2 CALLDATALOAD DUP1 ISZERO ISZERO DUP2 EQ PUSH2 0x15A6 JUMPI PUSH0 PUSH0 REVERT JUMPDEST SWAP4 SWAP3 POP POP POP JUMP JUMPDEST PUSH0 PUSH0 DUP4 PUSH1 0x1F DUP5 ADD SLT PUSH2 0x15BD JUMPI PUSH0 PUSH0 REVERT JUMPDEST POP DUP2 CALLDATALOAD PUSH1 0x1 PUSH1 0x1 PUSH1 0x40 SHL SUB DUP2 GT ISZERO PUSH2 0x15D3 JUMPI PUSH0 PUSH0 REVERT JUMPDEST PUSH1 0x20 DUP4 ADD SWAP2 POP DUP4 PUSH1 0x20 DUP3 DUP6 ADD ADD GT ISZERO PUSH2 0x152B JUMPI PUSH0 PUSH0 REVERT JUMPDEST PUSH0 PUSH0 PUSH0 PUSH0 PUSH0 PUSH0 PUSH0 PUSH0 PUSH0 PUSH1 0xA0 DUP11 DUP13 SUB SLT ISZERO PUSH2 0x1602 JUMPI PUSH0 PUSH0 REVERT JUMPDEST PUSH2 0x160B DUP11 PUSH2 0x14D0 JUMP JUMPDEST SWAP9 POP PUSH1 0x20 DUP11 ADD CALLDATALOAD PUSH1 0x1 PUSH1 0x1 PUSH1 0x40 SHL SUB DUP2 GT ISZERO PUSH2 0x1625 JUMPI PUSH0 PUSH0 REVERT JUMPDEST PUSH2 0x1631 DUP13 DUP3 DUP14 ADD PUSH2 0x14EB JUMP JUMPDEST SWAP1 SWAP10 POP SWAP8 POP POP PUSH1 0x40 DUP11 ADD CALLDATALOAD PUSH1 0x1 PUSH1 0x1 PUSH1 0x40 SHL SUB DUP2 GT ISZERO PUSH2 0x164F JUMPI PUSH0 PUSH0 REVERT JUMPDEST PUSH2 0x165B DUP13 DUP3 DUP14 ADD PUSH2 0x14EB JUMP JUMPDEST SWAP1 SWAP8 POP SWAP6 POP POP PUSH1 0x60 DUP11 ADD CALLDATALOAD PUSH1 0x1 PUSH1 0x1 PUSH1 0x40 SHL SUB DUP2 GT ISZERO PUSH2 0x1679 JUMPI PUSH0 PUSH0 REVERT JUMPDEST PUSH2 0x1685 DUP13 DUP3 DUP14 ADD PUSH2 0x14EB JUMP JUMPDEST SWAP1 SWAP6 POP SWAP4 POP POP PUSH1 0x80 DUP11 ADD CALLDATALOAD PUSH1 0x1 PUSH1 0x1 PUSH1 0x40 SHL SUB DUP2 GT ISZERO PUSH2 0x16A3 JUMPI PUSH0 PUSH0 REVERT JUMPDEST PUSH2 0x16AF DUP13 DUP3 DUP14 ADD PUSH2 0x15AD JUMP JUMPDEST SWAP2 POP DUP1 SWAP4 POP POP DUP1 SWAP2 POP POP SWAP3 SWAP6 SWAP9 POP SWAP3 SWAP6 SWAP9 POP SWAP3 SWAP6 SWAP9 JUMP JUMPDEST PUSH0 PUSH1 0x20 DUP3 DUP5 SUB SLT ISZERO PUSH2 0x16D6 JUMPI PUSH0 PUSH0 REVERT JUMPDEST POP CALLDATALOAD SWAP2 SWAP1 POP JUMP JUMPDEST PUSH0 PUSH0 PUSH0 PUSH0 PUSH0 PUSH1 0x60 DUP7 DUP9 SUB SLT ISZERO PUSH2 0x16F1 JUMPI PUSH0 PUSH0 REVERT JUMPDEST PUSH2 0x16FA DUP7 PUSH2 0x14D0 JUMP JUMPDEST SWAP5 POP PUSH1 0x20 DUP7 ADD CALLDATALOAD PUSH1 0x1 PUSH1 0x1 PUSH1 0x40 SHL SUB DUP2 GT ISZERO PUSH2 0x1714 JUMPI PUSH0 PUSH0 REVERT JUMPDEST PUSH2 0x1720 DUP9 DUP3 DUP10 ADD PUSH2 0x14EB JUMP JUMPDEST SWAP1 SWAP6 POP SWAP4 POP POP PUSH1 0x40 DUP7 ADD CALLDATALOAD PUSH1 0x1 PUSH1 0x1 PUSH1 0x40 SHL SUB DUP2 GT ISZERO PUSH2 0x173E JUMPI PUSH0 PUSH0 REVERT JUMPDEST PUSH2 0x174A DUP9 DUP3 DUP10 ADD PUSH2 0x14EB JUMP JUMPDEST SWAP7 SWAP10 SWAP6 SWAP9 POP SWAP4 SWAP7 POP SWAP3 SWAP5 SWAP4 SWAP3 POP POP POP JUMP JUMPDEST PUSH0 PUSH0 PUSH0 PUSH0 PUSH0 PUSH0 PUSH0 PUSH0 PUSH1 0xA0 DUP10 DUP12 SUB SLT ISZERO PUSH2 0x1772 JUMPI PUSH0 PUSH0 REVERT JUMPDEST PUSH2 0x177B DUP10 PUSH2 0x14D0 JUMP JUMPDEST SWAP8 POP PUSH1 0x20 DUP10 ADD CALLDATALOAD PUSH1 0x1 PUSH1 0x1 PUSH1 0x40 SHL SUB DUP2 GT ISZERO PUSH2 0x1795 JUMPI PUSH0 PUSH0 REVERT JUMPDEST PUSH2 0x17A1 DUP12 DUP3 DUP13 ADD PUSH2 0x14EB JUMP JUMPDEST SWAP1 SWAP9 POP SWAP7 POP POP PUSH1 0x40 DUP10 ADD CALLDATALOAD SWAP5 POP PUSH1 0x60 DUP10 ADD CALLDATALOAD PUSH1 0x1 PUSH1 0x1 PUSH1 0x40 SHL SUB DUP2 GT ISZERO PUSH2 0x17C6 JUMPI PUSH0 PUSH0 REVERT JUMPDEST PUSH2 0x17D2 DUP12 DUP3 DUP13 ADD PUSH2 0x14EB JUMP JUMPDEST SWAP1 SWAP6 POP SWAP4 POP POP PUSH1 0x80 DUP10 ADD CALLDATALOAD PUSH1 0x1 PUSH1 0x1 PUSH1 0x40 SHL SUB DUP2 GT ISZERO PUSH2 0x17F0 JUMPI PUSH0 PUSH0 REVERT JUMPDEST PUSH2 0x17FC DUP12 DUP3 DUP13 ADD PUSH2 0x15AD JUMP JUMPDEST SWAP10 SWAP13 SWAP9 SWAP12 POP SWAP7 SWAP10 POP SWAP5 SWAP8 SWAP4 SWAP7 SWAP3 SWAP6 SWAP5 POP POP POP JUMP JUMPDEST PUSH0 PUSH0 PUSH0 PUSH1 0x60 DUP5 DUP7 SUB SLT ISZERO PUSH2 0x1822 JUMPI PUSH0 PUSH0 REVERT JUMPDEST PUSH2 0x182B DUP5 PUSH2 0x14D0 JUMP JUMPDEST SWAP3 POP PUSH2 0x1839 PUSH1 0x20 DUP6 ADD PUSH2 0x14D0 JUMP JUMPDEST SWAP3 SWAP6 SWAP3 SWAP5 POP POP POP PUSH1 0x40 SWAP2 SWAP1 SWAP2 ADD CALLDATALOAD SWAP1 JUMP JUMPDEST PUSH0 PUSH1 0x20 DUP3 DUP5 SUB SLT ISZERO PUSH2 0x185A JUMPI PUSH0 PUSH0 REVERT JUMPDEST PUSH2 0x15A6 DUP3 PUSH2 0x14D0 JUMP JUMPDEST PUSH1 0x20 DUP1 DUP3 MSTORE PUSH1 0x17 SWAP1 DUP3 ADD MSTORE PUSH32 0x42756C6B53656E6465723A20456D707479206172726179000000000000000000 PUSH1 0x40 DUP3 ADD MSTORE PUSH1 0x60 ADD SWAP1 JUMP JUMPDEST PUSH1 0x20 DUP1 DUP3 MSTORE PUSH1 0x23 SWAP1 DUP3 ADD MSTORE PUSH32 0x42756C6B53656E6465723A204578636565647320726563697069656E74206C69 PUSH1 0x40 DUP3 ADD MSTORE PUSH3 0x1B5A5D PUSH1 0xEA SHL PUSH1 0x60 DUP3 ADD MSTORE PUSH1 0x80 ADD SWAP1 JUMP JUMPDEST PUSH1 0x20 DUP1 DUP3 MSTORE PUSH1 0x29 SWAP1 DUP3 ADD MSTORE PUSH32 0x42756C6B53656E6465723A20416D6F756E74206D757374206265206772656174 PUSH1 0x40 DUP3 ADD MSTORE PUSH9 0x6572207468616E203 PUSH1 0xBC SHL PUSH1 0x60 DUP3 ADD MSTORE PUSH1 0x80 ADD SWAP1 JUMP JUMPDEST PUSH4 0x4E487B71 PUSH1 0xE0 SHL PUSH0 MSTORE PUSH1 0x11 PUSH1 0x4 MSTORE PUSH1 0x24 PUSH0 REVERT JUMPDEST DUP1 DUP3 MUL DUP2 ISZERO DUP3 DUP3 DIV DUP5 EQ OR PUSH2 0x1951 JUMPI PUSH2 0x1951 PUSH2 0x1926 JUMP JUMPDEST SWAP3 SWAP2 POP POP JUMP JUMPDEST PUSH4 0x4E487B71 PUSH1 0xE0 SHL PUSH0 MSTORE PUSH1 0x32 PUSH1 0x4 MSTORE PUSH1 0x24 PUSH0 REVERT JUMPDEST PUSH1 0x20 DUP1 DUP3 MSTORE PUSH1 0x1D SWAP1 DUP3 ADD MSTORE PUSH32 0x42756C6B53656E6465723A20496E76616C696420726563697069656E74000000 PUSH1 0x40 DUP3 ADD MSTORE PUSH1 0x60 ADD SWAP1 JUMP JUMPDEST PUSH1 0x20 DUP1 DUP3 MSTORE PUSH1 0x21 SWAP1 DUP3 ADD MSTORE PUSH32 0x42756C6B53656E6465723A20496E76616C696420746F6B656E20616464726573 PUSH1 0x40 DUP3 ADD MSTORE PUSH1 0x73 PUSH1 0xF8 SHL PUSH1 0x60 DUP3 ADD MSTORE PUSH1 0x80 ADD SWAP1 JUMP JUMPDEST PUSH1 0x20 DUP1 DUP3 MSTORE PUSH1 0x21 SWAP1 DUP3 ADD MSTORE PUSH32 0x42756C6B53656E6465723A204172726179206C656E677468206D69736D617463 PUSH1 0x40 DUP3 ADD MSTORE PUSH1 0xD PUSH1 0xFB SHL PUSH1 0x60 DUP3 ADD MSTORE PUSH1 0x80 ADD SWAP1 JUMP JUMPDEST DUP2 DUP4 MSTORE PUSH0 PUSH1 0x1 PUSH1 0x1 PUSH1 0xFB SHL SUB DUP4 GT ISZERO PUSH2 0x1A3B JUMPI PUSH0 PUSH0 REVERT JUMPDEST DUP3 PUSH1 0x5 SHL DUP1 DUP4 PUSH1 0x20 DUP8 ADD CALLDATACOPY SWAP4 SWAP1 SWAP4 ADD PUSH1 0x20 ADD SWAP4 SWAP3 POP POP POP JUMP JUMPDEST DUP2 DUP4 MSTORE PUSH1 0x20 DUP4 ADD SWAP3 POP PUSH0 DUP2 PUSH0 JUMPDEST DUP5 DUP2 LT ISZERO PUSH2 0x1A90 JUMPI PUSH1 0x1 PUSH1 0x1 PUSH1 0xA0 SHL SUB PUSH2 0x1A7A DUP4 PUSH2 0x14D0 JUMP JUMPDEST AND DUP7 MSTORE PUSH1 0x20 SWAP6 DUP7 ADD SWAP6 SWAP2 SWAP1 SWAP2 ADD SWAP1 PUSH1 0x1 ADD PUSH2 0x1A61 JUMP JUMPDEST POP SWAP4 SWAP5 SWAP4 POP POP POP POP JUMP JUMPDEST PUSH1 0x40 DUP2 MSTORE PUSH0 PUSH2 0x1AAD PUSH1 0x40 DUP4 ADD DUP7 DUP9 PUSH2 0x1A24 JUMP JUMPDEST DUP3 DUP2 SUB PUSH1 0x20 DUP5 ADD MSTORE PUSH2 0x1AC0 DUP2 DUP6 DUP8 PUSH2 0x1A54 JUMP JUMPDEST SWAP8 SWAP7 POP POP POP POP POP POP POP JUMP JUMPDEST DUP1 DUP3 ADD DUP1 DUP3 GT ISZERO PUSH2 0x1951 JUMPI PUSH2 0x1951 PUSH2 0x1926 JUMP JUMPDEST PUSH0 PUSH1 0x20 DUP3 DUP5 SUB SLT ISZERO PUSH2 0x1AEE JUMPI PUSH0 PUSH0 REVERT JUMPDEST POP MLOAD SWAP2 SWAP1 POP JUMP JUMPDEST PUSH1 0x1 PUSH1 0x1 PUSH1 0xA0 SHL SUB DUP8 DUP2 AND DUP3 MSTORE DUP7 AND PUSH1 0x20 DUP3 ADD MSTORE PUSH1 0x40 DUP2 ADD DUP6 SWAP1 MSTORE PUSH1 0x60 DUP2 ADD DUP5 SWAP1 MSTORE PUSH1 0xA0 PUSH1 0x80 DUP3 ADD DUP2 SWAP1 MSTORE DUP2 ADD DUP3 SWAP1 MSTORE DUP2 DUP4 PUSH1 0xC0 DUP4 ADD CALLDATACOPY PUSH0 DUP2 DUP4 ADD PUSH1 0xC0 SWAP1 DUP2 ADD SWAP2 SWAP1 SWAP2 MSTORE PUSH1 0x1F SWAP1 SWAP3 ADD PUSH1 0x1F NOT AND ADD ADD SWAP6 SWAP5 POP POP POP POP POP JUMP JUMPDEST PUSH1 0x60 DUP2 MSTORE PUSH0 PUSH2 0x1B60 PUSH1 0x60 DUP4 ADD DUP9 DUP11 PUSH2 0x1A24 JUMP JUMPDEST DUP3 DUP2 SUB PUSH1 0x20 DUP5 ADD MSTORE PUSH2 0x1B73 DUP2 DUP8 DUP10 PUSH2 0x1A24 JUMP JUMPDEST SWAP1 POP DUP3 DUP2 SUB PUSH1 0x40 DUP5 ADD MSTORE PUSH2 0x1B88 DUP2 DUP6 DUP8 PUSH2 0x1A54 JUMP JUMPDEST SWAP10 SWAP9 POP POP POP POP POP POP POP POP POP JUMP JUMPDEST PUSH4 0x4E487B71 PUSH1 0xE0 SHL PUSH0 MSTORE PUSH1 0x41 PUSH1 0x4 MSTORE PUSH1 0x24 PUSH0 REVERT JUMPDEST PUSH1 0x60 DUP1 DUP3 MSTORE DUP7 MLOAD SWAP1 DUP3 ADD DUP2 SWAP1 MSTORE PUSH0 SWAP1 PUSH1 0x20 DUP9 ADD SWAP1 PUSH1 0x80 DUP5 ADD SWAP1 DUP4 JUMPDEST DUP2 DUP2 LT ISZERO PUSH2 0x1BE2 JUMPI DUP4 MLOAD DUP4 MSTORE PUSH1 0x20 SWAP4 DUP5 ADD SWAP4 SWAP1 SWAP3 ADD SWAP2 PUSH1 0x1 ADD PUSH2 0x1BC4 JUMP JUMPDEST POP POP DUP4 DUP2 SUB PUSH1 0x20 DUP6 ADD MSTORE PUSH2 0x1BF7 DUP2 DUP9 DUP11 PUSH2 0x1A24 JUMP JUMPDEST SWAP2 POP POP DUP3 DUP2 SUB PUSH1 0x40 DUP5 ADD MSTORE PUSH2 0x1C0D DUP2 DUP6 DUP8 PUSH2 0x1A54 JUMP JUMPDEST SWAP9 SWAP8 POP POP POP POP POP POP POP POP JUMP INVALID LOG2 PUSH5 0x6970667358 0x22 SLT KECCAK256 NOT 0xC9 0xC5 0xDA MULMOD PUSH30 0x7D9461B61B208B50E99684704D55A3EFA882E51CE2AECA9A57B364736F6C PUSH4 0x4300081C STOP CALLER "
        },
        "methodIdentifiers": {
          "bulkSendERC1155(address,address[],uint256,uint256[],bytes)": "8769ec7c",
          "bulkSendERC1155Different(address,address[],uint256[],uint256[],bytes)": "3cc00635",
          "bulkSendERC20Different(address,address[],uint256[])": "ef5114ed",
          "bulkSendERC20Equal(address,address[],uint256)": "04a59160",
          "bulkSendERC721(address,address[],uint256[])": "7052d2b9",
          "emergencyWithdraw(address,address,uint256)": "e63ea408",
          "getRecipientLimit()": "ea0a0463",
          "isPaused()": "b187bd26",
          "owner()": "8da5cb5b",
          "paused()": "5c975abb",
          "recipientLimit()": "ba6ccb40",
          "renounceOwnership()": "715018a6",
          "setPaused(bool)": "16c38b3c",
          "setRecipientLimit(uint256)": "59624756",
          "transferOwnership(address)": "f2fde38b"
        }
      }
    }
  }
}