{
  "_format": "hh-sol-artifact-1",
  "contractName": "BulkSender",
  "sourceName": "contracts/BulkSender.sol",
  "abi": [
    {
      "inputs": [
        {
          "internalType": "address",
          "name": "initialOwner",
          "type": "address"
        }
      ],
      "stateMutability": "nonpayable",
      "type": "constructor"
    },
    {
      "inputs": [],
      "name": "EnforcedPause",
      "type": "error"
    },
    {
      "inputs": [],
      "name": "ExpectedPause",
      "type": "error"
    },
    {
      "inputs": [
        {
          "internalType": "address",
          "name": "owner",
          "type": "address"
        }
      ],
      "name": "OwnableInvalidOwner",
      "type": "error"
    },
    {
      "inputs": [
        {
          "internalType": "address",
          "name": "account",
          "type": "address"
        }
      ],
      "name": "OwnableUnauthorizedAccount",
      "type": "error"
    },
    {
      "inputs": [],
      "name": "ReentrancyGuardReentrantCall",
      "type": "error"
    },
    {
      "inputs": [
        {
          "internalType": "address",
          "name": "token",
          "type": "address"
        }
      ],
      "name": "SafeERC20FailedOperation",
      "type": "error"
    },
    {
      "anonymous": false,
      "inputs": [
        {
          "indexed": true,
          "internalType": "address",
          "name": "token",
          "type": "address"
        },
        {
          "indexed": true,
          "internalType": "address",
          "name": "sender",
          "type": "address"
        },
        {
          "indexed": false,
          "internalType": "uint256[]",
          "name": "tokenIds",
          "type": "uint256[]"
        },
        {
          "indexed": false,
          "internalType": "uint256[]",
          "name": "amounts",
          "type": "uint256[]"
        },
        {
          "indexed": false,
          "internalType": "address[]",
          "name": "recipients",
          "type": "address[]"
        }
      ],
      "name": "BulkERC1155Transfer",
      "type": "event"
    },
    {
      "anonymous": false,
      "inputs": [
        {
          "indexed": true,
          "internalType": "address",
          "name": "token",
          "type": "address"
        },
        {
          "indexed": true,
          "internalType": "address",
          "name": "sender",
          "type": "address"
        },
        {
          "indexed": false,
          "internalType": "uint256",
          "name": "totalAmount",
          "type": "uint256"
        },
        {
          "indexed": false,
          "internalType": "uint256",
          "name": "recipientCount",
          "type": "uint256"
        }
      ],
      "name": "BulkERC20Transfer",
      "type": "event"
    },
    {
      "anonymous": false,
      "inputs": [
        {
          "indexed": true,
          "internalType": "address",
          "name": "token",
          "type": "address"
        },
        {
          "indexed": true,
          "internalType": "address",
          "name": "sender",
          "type": "address"
        },
        {
          "indexed": false,
          "internalType": "uint256[]",
          "name": "tokenIds",
          "type": "uint256[]"
        },
        {
          "indexed": false,
          "internalType": "address[]",
          "name": "recipients",
          "type": "address[]"
        }
      ],
      "name": "BulkERC721Transfer",
      "type": "event"
    },
    {
      "anonymous": false,
      "inputs": [
        {
          "indexed": true,
          "internalType": "address",
          "name": "previousOwner",
          "type": "address"
        },
        {
          "indexed": true,
          "internalType": "address",
          "name": "newOwner",
          "type": "address"
        }
      ],
      "name": "OwnershipTransferred",
      "type": "event"
    },
    {
      "anonymous": false,
      "inputs": [
        {
          "indexed": false,
          "internalType": "address",
          "name": "account",
          "type": "address"
        }
      ],
      "name": "Paused",
      "type": "event"
    },
    {
      "anonymous": false,
      "inputs": [
        {
          "indexed": false,
          "internalType": "uint256",
          "name": "newLimit",
          "type": "uint256"
        }
      ],
      "name": "RecipientLimitUpdated",
      "type": "event"
    },
    {
      "anonymous": false,
      "inputs": [
        {
          "indexed": false,
          "internalType": "address",
          "name": "account",
          "type": "address"
        }
      ],
      "name": "Unpaused",
      "type": "event"
    },
    {
      "inputs": [
        {
          "internalType": "address",
          "name": "token",
          "type": "address"
        },
        {
          "internalType": "address[]",
          "name": "recipients",
          "type": "address[]"
        },
        {
          "internalType": "uint256",
          "name": "tokenId",
          "type": "uint256"
        },
        {
          "internalType": "uint256[]",
          "name": "amounts",
          "type": "uint256[]"
        },
        {
          "internalType": "bytes",
          "name": "data",
          "type": "bytes"
        }
      ],
      "name": "bulkSendERC1155",
      "outputs": [],
      "stateMutability": "payable",
      "type": "function"
    },
    {
      "inputs": [
        {
          "internalType": "address",
          "name": "token",
          "type": "address"
        },
        {
          "internalType": "address[]",
          "name": "recipients",
          "type": "address[]"
        },
        {
          "internalType": "uint256[]",
          "name": "tokenIds",
          "type": "uint256[]"
        },
        {
          "internalType": "uint256[]",
          "name": "amounts",
          "type": "uint256[]"
        },
        {
          "internalType": "bytes",
          "name": "data",
          "type": "bytes"
        }
      ],
      "name": "bulkSendERC1155Different",
      "outputs": [],
      "stateMutability": "payable",
      "type": "function"
    },
    {
      "inputs": [
        {
          "internalType": "address",
          "name": "token",
          "type": "address"
        },
        {
          "internalType": "address[]",
          "name": "recipients",
          "type": "address[]"
        },
        {
          "internalType": "uint256[]",
          "name": "amounts",
          "type": "uint256[]"
        }
      ],
      "name": "bulkSendERC20Different",
      "outputs": [],
      "stateMutability": "payable",
      "type": "function"
    },
    {
      "inputs": [
        {
          "internalType": "address",
          "name": "token",
          "type": "address"
        },
        {
          "internalType": "address[]",
          "name": "recipients",
          "type": "address[]"
        },
        {
          "internalType": "uint256",
          "name": "amount",
          "type": "uint256"
        }
      ],
      "name": "bulkSendERC20Equal",
      "outputs": [],
      "stateMutability": "payable",
      "type": "function"
    },
    {
      "inputs": [
        {
          "internalType": "address",
          "name": "token",
          "type": "address"
        },
        {
          "internalType": "address[]",
          "name": "recipients",
          "type": "address[]"
        },
        {
          "internalType": "uint256[]",
          "name": "tokenIds",
          "type": "uint256[]"
        }
      ],
      "name": "bulkSendERC721",
      "outputs": [],
      "stateMutability": "payable",
      "type": "function"
    },
    {
      "inputs": [
        {
          "internalType": "address",
          "name": "token",
          "type": "address"
        },
        {
          "internalType": "address",
          "name": "to",
          "type": "address"
        },
        {
          "internalType": "uint256",
          "name": "amount",
          "type": "uint256"
        }
      ],
      "name": "emergencyWithdraw",
      "outputs": [],
      "stateMutability": "nonpayable",
      "type": "function"
    },
    {
      "inputs": [],
      "name": "getRecipientLimit",
      "outputs": [
        {
          "internalType": "uint256",
          "name": "",
          "type": "uint256"
        }
      ],
      "stateMutability": "view",
      "type": "function"
    },
    {
      "inputs": [],
      "name": "isPaused",
      "outputs": [
        {
          "internalType": "bool",
          "name": "",
          "type": "bool"
        }
      ],
      "stateMutability": "view",
      "type": "function"
    },
    {
      "inputs": [],
      "name": "owner",
      "outputs": [
        {
          "internalType": "address",
          "name": "",
          "type": "address"
        }
      ],
      "stateMutability": "view",
      "type": "function"
    },
    {
      "inputs": [],
      "name": "paused",
      "outputs": [
        {
          "internalType": "bool",
          "name": "",
          "type": "bool"
        }
      ],
      "stateMutability": "view",
      "type": "function"
    },
    {
      "inputs": [],
      "name": "recipientLimit",
      "outputs": [
        {
          "internalType": "uint256",
          "name": "",
          "type": "uint256"
        }
      ],
      "stateMutability": "view",
      "type": "function"
    },
    {
      "inputs": [],
      "name": "renounceOwnership",
      "outputs": [],
      "stateMutability": "nonpayable",
      "type": "function"
    },
    {
      "inputs": [
        {
          "internalType": "bool",
          "name": "paused",
          "type": "bool"
        }
      ],
      "name": "setPaused",
      "outputs": [],
      "stateMutability": "nonpayable",
      "type": "function"
    },
    {
      "inputs": [
        {
          "internalType": "uint256",
          "name": "newLimit",
          "type": "uint256"
        }
      ],
      "name": "setRecipientLimit",
      "outputs": [],
      "stateMutability": "nonpayable",
      "type": "function"
    },
    {
      "inputs": [
        {
          "internalType": "address",
          "name": "newOwner",
          "type": "address"
        }
      ],
      "name": "transferOwnership",
      "outputs": [],
      "stateMutability": "nonpayable",
      "type": "function"
    },
    {
      "stateMutability": "payable",
      "type": "receive"
    }
  ],
  "bytecode": "0x608060405260c8600355348015610014575f5ffd5b50604051611d4d380380611d4d833981016040819052610033916100c4565b806001600160a01b03811661006157604051631e4fbdf760e01b81525f600482015260240160405180910390fd5b61006a81610075565b5050600180556100f1565b5f80546001600160a01b038381166001600160a01b0319831681178455604051919092169283917f8be0079c531659141344cd1fd0a4f28419497f9722a3daafe3b4186f6b6457e09190a35050565b5f602082840312156100d4575f5ffd5b81516001600160a01b03811681146100ea575f5ffd5b9392505050565b611c4f806100fe5f395ff3fe6080604052600436106100e7575f3560e01c80638769ec7c11610087578063e63ea40811610057578063e63ea40814610217578063ea0a046314610236578063ef5114ed1461024a578063f2fde38b1461025d575f5ffd5b80638769ec7c146101a75780638da5cb5b146101ba578063b187bd26146101e0578063ba6ccb40146101f4575f5ffd5b806359624756116100c257806359624756146101395780635c975abb146101585780637052d2b914610180578063715018a614610193575f5ffd5b806304a59160146100f257806316c38b3c146101075780633cc0063514610126575f5ffd5b366100ee57005b5f5ffd5b610105610100366004611532565b61027c565b005b348015610112575f5ffd5b50610105610121366004611587565b610416565b6101056101343660046115ea565b610437565b348015610144575f5ffd5b506101056101533660046116c6565b6104fd565b348015610163575f5ffd5b5060025460ff165b60405190151581526020015b60405180910390f35b61010561018e3660046116dd565b6105a0565b34801561019e575f5ffd5b506101056107b1565b6101056101b536600461175b565b6107c4565b3480156101c5575f5ffd5b505f546040516001600160a01b039091168152602001610177565b3480156101eb575f5ffd5b5061016b61087f565b3480156101ff575f5ffd5b5061020960035481565b604051908152602001610177565b348015610222575f5ffd5b50610105610231366004611810565b610891565b348015610241575f5ffd5b50600354610209565b6101056102583660046116dd565b610a10565b348015610268575f5ffd5b5061010561027736600461184a565b610c20565b610284610c5a565b61028c610c84565b81806102b35760405162461bcd60e51b81526004016102aa90611863565b60405180910390fd5b6003548111156102d55760405162461bcd60e51b81526004016102aa9061189a565b5f82116102f45760405162461bcd60e51b81526004016102aa906118dd565b5f6102ff848461193a565b905061030c863383610ca8565b856103226001600160a01b038216333085610ec9565b5f5b858110156103bd575f87878381811061033f5761033f611957565b9050602002016020810190610354919061184a565b6001600160a01b03160361037a5760405162461bcd60e51b81526004016102aa9061196b565b6103b587878381811061038f5761038f611957565b90506020020160208101906103a4919061184a565b6001600160a01b0384169087610f30565b600101610324565b50604080518381526020810187905233916001600160a01b038a16917f7ec79f40ea4b20c658c34d61e167b02589f7abc3534ea5eebca3fce93793db48910160405180910390a350505061041060018055565b50505050565b61041e610f61565b801561042f5761042c610f8d565b50565b61042c610fe7565b61043f610c5a565b610447610c84565b86806104655760405162461bcd60e51b81526004016102aa90611863565b6003548111156104875760405162461bcd60e51b81526004016102aa9061189a565b6001600160a01b038a166104ad5760405162461bcd60e51b81526004016102aa906119a2565b87861480156104bb57508584145b6104d75760405162461bcd60e51b81526004016102aa906119e3565b6104e88a8a8a8a8a8a8a8a8a611020565b506104f260018055565b505050505050505050565b610505610f61565b5f81116105655760405162461bcd60e51b815260206004820152602860248201527f42756c6b53656e6465723a204c696d6974206d75737420626520677265617465604482015267072207468616e20360c41b60648201526084016102aa565b60038190556040518181527f2bed6cf51b7539809f75ce72d151c0d9f5c1c55f93e84b1cea4c6911170b61409060200160405180910390a150565b6105a8610c5a565b6105b0610c84565b82806105ce5760405162461bcd60e51b81526004016102aa90611863565b6003548111156105f05760405162461bcd60e51b81526004016102aa9061189a565b6001600160a01b0386166106165760405162461bcd60e51b81526004016102aa906119a2565b8382146106355760405162461bcd60e51b81526004016102aa906119e3565b855f5b8581101561074d575f87878381811061065357610653611957565b9050602002016020810190610668919061184a565b6001600160a01b03160361068e5760405162461bcd60e51b81526004016102aa9061196b565b816001600160a01b03166342842e0e338989858181106106b0576106b0611957565b90506020020160208101906106c5919061184a565b8888868181106106d7576106d7611957565b6040516001600160e01b031960e088901b1681526001600160a01b039586166004820152949093166024850152506020909102013560448201526064015f604051808303815f87803b15801561072b575f5ffd5b505af115801561073d573d5f5f3e3d5ffd5b5050600190920191506106389050565b50336001600160a01b0316876001600160a01b03167fb9d997fc4103799e2523371077f0206e376d61f19699302a45f0d945cc594d4286868a8a6040516107979493929190611a9a565b60405180910390a350506107aa60018055565b5050505050565b6107b9610f61565b6107c25f6111d7565b565b6107cc610c5a565b6107d4610c84565b85806107f25760405162461bcd60e51b81526004016102aa90611863565b6003548111156108145760405162461bcd60e51b81526004016102aa9061189a565b6001600160a01b03891661083a5760405162461bcd60e51b81526004016102aa906119a2565b8684146108595760405162461bcd60e51b81526004016102aa906119e3565b61086b89898989898989896001611226565b5061087560018055565b5050505050505050565b5f61088c60025460ff1690565b905090565b610899610f61565b6001600160a01b0382166108ef5760405162461bcd60e51b815260206004820152601b60248201527f42756c6b53656e6465723a20496e76616c69642061646472657373000000000060448201526064016102aa565b6001600160a01b0383166109f757478082111561094e5760405162461bcd60e51b815260206004820181905260248201527f42756c6b53656e6465723a20496e73756666696369656e742062616c616e636560448201526064016102aa565b5f836001600160a01b0316836040515f6040518083038185875af1925050503d805f8114610997576040519150601f19603f3d011682016040523d82523d5f602084013e61099c565b606091505b50509050806107aa5760405162461bcd60e51b815260206004820152602160248201527f42756c6b53656e6465723a20455448207769746864726177616c206661696c656044820152601960fa1b60648201526084016102aa565b610a0b6001600160a01b0384168383610f30565b505050565b610a18610c5a565b610a20610c84565b8280610a3e5760405162461bcd60e51b81526004016102aa90611863565b600354811115610a605760405162461bcd60e51b81526004016102aa9061189a565b838214610a7f5760405162461bcd60e51b81526004016102aa906119e3565b5f805b83811015610aef575f858583818110610a9d57610a9d611957565b9050602002013511610ac15760405162461bcd60e51b81526004016102aa906118dd565b848482818110610ad357610ad3611957565b9050602002013582610ae59190611acb565b9150600101610a82565b50610afb873383610ca8565b86610b116001600160a01b038216333085610ec9565b5f5b86811015610bcd575f888883818110610b2e57610b2e611957565b9050602002016020810190610b43919061184a565b6001600160a01b031603610b695760405162461bcd60e51b81526004016102aa9061196b565b610bc5888883818110610b7e57610b7e611957565b9050602002016020810190610b93919061184a565b878784818110610ba557610ba5611957565b90506020020135846001600160a01b0316610f309092919063ffffffff16565b600101610b13565b50604080518381526020810188905233916001600160a01b038b16917f7ec79f40ea4b20c658c34d61e167b02589f7abc3534ea5eebca3fce93793db48910160405180910390a35050506107aa60018055565b610c28610f61565b6001600160a01b038116610c5157604051631e4fbdf760e01b81525f60048201526024016102aa565b61042c816111d7565b600260015403610c7d57604051633ee5aeb560e01b815260040160405180910390fd5b6002600155565b60025460ff16156107c25760405163d93c066560e01b815260040160405180910390fd5b6001600160a01b038316610cce5760405162461bcd60e51b81526004016102aa906119a2565b5f8111610d355760405162461bcd60e51b815260206004820152602f60248201527f42756c6b53656e6465723a20546f74616c20616d6f756e74206d75737420626560448201526e02067726561746572207468616e203608c1b60648201526084016102aa565b604051636eb1769f60e11b81526001600160a01b03838116600483015230602483015284915f9183169063dd62ed3e90604401602060405180830381865afa158015610d83573d5f5f3e3d5ffd5b505050506040513d601f19601f82011682018060405250810190610da79190611ade565b905082811015610e045760405162461bcd60e51b815260206004820152602260248201527f42756c6b53656e6465723a20496e73756666696369656e7420616c6c6f77616e604482015261636560f01b60648201526084016102aa565b6040516370a0823160e01b81526001600160a01b0385811660048301525f91908416906370a0823190602401602060405180830381865afa158015610e4b573d5f5f3e3d5ffd5b505050506040513d601f19601f82011682018060405250810190610e6f9190611ade565b905083811015610ec15760405162461bcd60e51b815260206004820181905260248201527f42756c6b53656e6465723a20496e73756666696369656e742062616c616e636560448201526064016102aa565b505050505050565b6040516001600160a01b0384811660248301528381166044830152606482018390526104109186918216906323b872dd906084015b604051602081830303815290604052915060e01b6020820180516001600160e01b038381831617835250505050611441565b6040516001600160a01b03838116602483015260448201839052610a0b91859182169063a9059cbb90606401610efe565b5f546001600160a01b031633146107c25760405163118cdaa760e01b81523360048201526024016102aa565b610f95610c84565b6002805460ff191660011790557f62e78cea01bee320cd4e420270b5ea74000d11b0c9f74754ebdbfc544b05a258610fca3390565b6040516001600160a01b03909116815260200160405180910390a1565b610fef6114ad565b6002805460ff191690557f5db9ee0a495bf2e6ff9c91a7834c1ba4fdd244a5e8aa4e537bd38aeae4b073aa33610fca565b885f5b88811015611175575f8a8a8381811061103e5761103e611957565b9050602002016020810190611053919061184a565b6001600160a01b0316036110795760405162461bcd60e51b81526004016102aa9061196b565b5f86868381811061108c5761108c611957565b90506020020135116110b05760405162461bcd60e51b81526004016102aa906118dd565b816001600160a01b031663f242432a338c8c858181106110d2576110d2611957565b90506020020160208101906110e7919061184a565b8b8b868181106110f9576110f9611957565b905060200201358a8a8781811061111257611112611957565b9050602002013589896040518763ffffffff1660e01b815260040161113c96959493929190611af5565b5f604051808303815f87803b158015611153575f5ffd5b505af1158015611165573d5f5f3e3d5ffd5b5050600190920191506110239050565b50336001600160a01b03168a6001600160a01b03167fd9a609fb8004c27b22cca523071b055175f239379e2e85a854478e1bd1b9c247898989898f8f6040516111c396959493929190611b4d565b60405180910390a350505050505050505050565b5f80546001600160a01b038381166001600160a01b0319831681178455604051919092169283917f8be0079c531659141344cd1fd0a4f28419497f9722a3daafe3b4186f6b6457e09190a35050565b885f5b88811015611363575f8a8a8381811061124457611244611957565b9050602002016020810190611259919061184a565b6001600160a01b03160361127f5760405162461bcd60e51b81526004016102aa9061196b565b5f87878381811061129257611292611957565b90506020020135116112b65760405162461bcd60e51b81526004016102aa906118dd565b816001600160a01b031663f242432a338c8c858181106112d8576112d8611957565b90506020020160208101906112ed919061184a565b8b8b8b8781811061130057611300611957565b905060200201358a8a6040518763ffffffff1660e01b815260040161132a96959493929190611af5565b5f604051808303815f87803b158015611341575f5ffd5b505af1158015611353573d5f5f3e3d5ffd5b5050600190920191506112299050565b508115611435575f886001600160401b0381111561138357611383611b95565b6040519080825280602002602001820160405280156113ac578160200160208202803683370190505b5090505f5b898110156113df57888282815181106113cc576113cc611957565b60209081029190910101526001016113b1565b50336001600160a01b03168b6001600160a01b03167fd9a609fb8004c27b22cca523071b055175f239379e2e85a854478e1bd1b9c247838a8a8f8f60405161142b959493929190611ba9565b60405180910390a3505b50505050505050505050565b5f5f60205f8451602086015f885af180611460576040513d5f823e3d81fd5b50505f513d91508115611477578060011415611484565b6001600160a01b0384163b155b1561041057604051635274afe760e01b81526001600160a01b03851660048201526024016102aa565b60025460ff166107c257604051638dfc202b60e01b815260040160405180910390fd5b80356001600160a01b03811681146114e6575f5ffd5b919050565b5f5f83601f8401126114fb575f5ffd5b5081356001600160401b03811115611511575f5ffd5b6020830191508360208260051b850101111561152b575f5ffd5b9250929050565b5f5f5f5f60608587031215611545575f5ffd5b61154e856114d0565b935060208501356001600160401b03811115611568575f5ffd5b611574878288016114eb565b9598909750949560400135949350505050565b5f60208284031215611597575f5ffd5b813580151581146115a6575f5ffd5b9392505050565b5f5f83601f8401126115bd575f5ffd5b5081356001600160401b038111156115d3575f5ffd5b60208301915083602082850101111561152b575f5ffd5b5f5f5f5f5f5f5f5f5f60a08a8c031215611602575f5ffd5b61160b8a6114d0565b985060208a01356001600160401b03811115611625575f5ffd5b6116318c828d016114eb565b90995097505060408a01356001600160401b0381111561164f575f5ffd5b61165b8c828d016114eb565b90975095505060608a01356001600160401b03811115611679575f5ffd5b6116858c828d016114eb565b90955093505060808a01356001600160401b038111156116a3575f5ffd5b6116af8c828d016115ad565b915080935050809150509295985092959850929598565b5f602082840312156116d6575f5ffd5b5035919050565b5f5f5f5f5f606086880312156116f1575f5ffd5b6116fa866114d0565b945060208601356001600160401b03811115611714575f5ffd5b611720888289016114eb565b90955093505060408601356001600160401b0381111561173e575f5ffd5b61174a888289016114eb565b969995985093965092949392505050565b5f5f5f5f5f5f5f5f60a0898b031215611772575f5ffd5b61177b896114d0565b975060208901356001600160401b03811115611795575f5ffd5b6117a18b828c016114eb565b9098509650506040890135945060608901356001600160401b038111156117c6575f5ffd5b6117d28b828c016114eb565b90955093505060808901356001600160401b038111156117f0575f5ffd5b6117fc8b828c016115ad565b999c989b5096995094979396929594505050565b5f5f5f60608486031215611822575f5ffd5b61182b846114d0565b9250611839602085016114d0565b929592945050506040919091013590565b5f6020828403121561185a575f5ffd5b6115a6826114d0565b60208082526017908201527f42756c6b53656e6465723a20456d707479206172726179000000000000000000604082015260600190565b60208082526023908201527f42756c6b53656e6465723a204578636565647320726563697069656e74206c696040820152621b5a5d60ea1b606082015260800190565b60208082526029908201527f42756c6b53656e6465723a20416d6f756e74206d75737420626520677265617460408201526806572207468616e20360bc1b606082015260800190565b634e487b7160e01b5f52601160045260245ffd5b808202811582820484141761195157611951611926565b92915050565b634e487b7160e01b5f52603260045260245ffd5b6020808252601d908201527f42756c6b53656e6465723a20496e76616c696420726563697069656e74000000604082015260600190565b60208082526021908201527f42756c6b53656e6465723a20496e76616c696420746f6b656e206164647265736040820152607360f81b606082015260800190565b60208082526021908201527f42756c6b53656e6465723a204172726179206c656e677468206d69736d6174636040820152600d60fb1b606082015260800190565b8183525f6001600160fb1b03831115611a3b575f5ffd5b8260051b80836020870137939093016020019392505050565b8183526020830192505f815f5b84811015611a90576001600160a01b03611a7a836114d0565b1686526020958601959190910190600101611a61565b5093949350505050565b604081525f611aad604083018688611a24565b8281036020840152611ac0818587611a54565b979650505050505050565b8082018082111561195157611951611926565b5f60208284031215611aee575f5ffd5b5051919050565b6001600160a01b03878116825286166020820152604081018590526060810184905260a0608082018190528101829052818360c08301375f81830160c090810191909152601f909201601f1916010195945050505050565b606081525f611b6060608301888a611a24565b8281036020840152611b73818789611a24565b90508281036040840152611b88818587611a54565b9998505050505050505050565b634e487b7160e01b5f52604160045260245ffd5b606080825286519082018190525f9060208801906080840190835b81811015611be2578351835260209384019390920191600101611bc4565b50508381036020850152611bf781888a611a24565b9150508281036040840152611c0d818587611a54565b9897505050505050505056fea264697066735822122019c9c5da097d7d9461b61b208b50e99684704d55a3efa882e51ce2aeca9a57b364736f6c634300081c0033",
  "linkReferences": {},
  "deployedLinkReferences": {}
}